:100000000C94503E0C94713E0C94713E0C94713ED5
:100010000C94713E0C94713E0C94713E0C94713EA4
:100020000C94713E0C94713E0C94713E0C94713E94
:100030000C94713E0C94713E0C94D4C20C94BD3E51
:100040000C94FA3E0C94373F0C94743F0C94B13FDF
:100050000C9481C70C94EE3F0C942B400C94684098
:100060000C94713E0C94713E0C94713E0C94713E54
:100070000C9480C50C94713E0C94CDC40C94713ECC
:100080000C94713E0C94713E0C94713E0C94713E34
:100090000C94713E0C94713E0C94713E0C94713E24
:1000A0000C94713E0C94713E0C94713E0C94713E14
:1000B0000C94713E0C94713E0C94713E0C94713E04
:1000C0000C948D420C94CA420C9407430C94444304
:1000D0000C9481430C94A9C60C94BE430C9496C610
:1000E0000C94FB430C94713E0C946AC30C94713EC7
:1000F0000C94713E0C94E7C30C94713E0C9443C471
:100100000C94713E0C94713E0C94713E0C94713EB3
:100110000C94713E0C94713E0C94713E0C94713EA3
:100120000C94713E0C94713E0C94713E0C94713E93
:100130000C94713E0C94EDC70C94A5400C94E240D5
:100140000C941F410C945C410C9499410C941AC678
:100150000C94D6410C9413420C9450420C94713E72
:100160000C94713E0C94713E0C94713E0C94713E53
:100170000C94713E0C94713E0C94713E0C94713E43
:100180000C94713E0C94713E0C94713E0C94713E33
:100190000C94713E0C94713E0C94713E0C94713E23
:1001A0000C94713E0C94713E0C94713E0C94713E13
:1001B0000C9415C70C9438440C9475440C94B244B8
:1001C0000C94EF440C942C450C94713E0C94713EAD
:1001D0000C94713E0C94713E0C94713E0C9471C45D
:1001E0000C94713E0C94713E1A591D5928592B5983
:1001F0002E593159345937593A593D594059435973
:10020000A65CC75CF25C1E5D415D645D8F5DBA5D9E
:10021000E55D506145601E621E621E6209602360DA
:10022000595E315F63618E62AF62DA620663296391
:100230004C637763A263CD63C7729372E072E0721E
:10024000E072777285722F725372D67263BC8DBC66
:1002500047BD5EBDC9BDF5BECBBFE0BD78BEC5BE66
:10026000D6BE60BF93C0A1C2B2C036C074C0A1C226
:10027000A1C2A1C2A1C2C3C0414402010A05000338
:10028000041403030A0000001D000078002075001C
:100290000000000000044231374B00000000000065
:1002A000000000000000000000000000000000004E
:1002B000000000000000000000000000000000003E
:1002C000000000000000000000000000000000002E
:1002D000000000000000000000000000000000001E
:1002E000000000000000000000000000000000000E
:1002F000B2006610271FDC24962A50300536F837E6
:10030000F039E83BDB3DBE3E8B405E411743D044B5
:1003100089463D486B55FF56BC57B558D159715A5F
:10032000115BB15B515CF15CC85DCB004210060013
:1003300012283029C4E0F2E0C2F0E5ECFFC2E5F09B
:10034000F1E8FF13F2006C016F0172017B040A05F2
:10035000180526052F08BE08CC08DA08E30B720C36
:10036000800C8E0C970F2610341000068D414F2004
:100370003C41434B3E2020202020202020202020D4
:10038000202020202020202020202020202020206D
:100390002020202085913120202020202020207620
:1003A0002020202020202020859132202020202065
:1003B00020202076202020202020202085913320FE
:1003C00020202020202020762020202020202020D7
:1003D00085913420202020202020207620202020DD
:1003E0002020202003000C04010C0202030611044B
:1003F00009007F2041424150202020202020202041
:100400004142415020202020202020202020202058
:100410002020804F544F4220804F544F4220804F25
:10042000544F422A414241502A2041424150202A01
:10043000414241502A2041424150202F50454B0615
:10044000857C50454B06855C50454B06852D5045B7
:100450004B06852041424150202020202020202092
:1004600041424150202020202020202020202020F8
:100470002020804F544F4220804F544F4220804FC5
:10048000544F422A414241502A2041424150202AA1
:10049000414241502A2041424150202F54998041ED
:1004A0002F7C549980417C5C549980415C2D5499F7
:1004B00080412D204142415020202020202020201A
:1004C0004142415020202020202020202020202098
:1004D0002020804F544F4220804F544F4220804F65
:1004E000544F422A414241502A2A202020202A2AC1
:1004F000414241502A2A202020202A2F50454B06D5
:10050000857C20202020205C50454B06852D202016
:100510002020202041424150202020202020202047
:100520004142415020202020202020202020202037
:100530002020804F544F4220804F544F4220804F04
:10054000544F422A414241502A2A202020202A2A60
:10055000414241502A2A202020202A2F54998041AC
:100560002F7C202020207C5C549980415C2D202011
:1005700020202D2041424150202041424150202046
:100580002020202020202020202020208D41509934
:100590008B208D4150998B208D4150998B208D411E
:1005A00050998B204142415020204142415020200F
:1005B0002020202020202020202020208D41509904
:1005C0008B208D4150998B208D4150998B208D41EE
:1005D00050998B20414241502020414241502020DF
:1005E0002020202020202020202020208D415099D4
:1005F0008B208D4150998B208D4150998B208D41BE
:1006000050998B20414241502020414241502020AE
:100610002020202020202020202020208D415099A3
:100620008B208D4150998B208D4150998B208D418D
:1006300050998B204142415020204142415020207E
:100640002020202020202020202020208D41509973
:100650008B208D4150998B208D4150998B208D415D
:1006600050998B204142415020204142415020204E
:100670002020202020202020202020208D41509943
:100680008B208D4150998B208D4150998B208D412D
:1006900050998B204142415020204142415020201E
:1006A0002020202020202020202020208D41509913
:1006B0008B208D4150998B208D4150998B208D41FD
:1006C00050998B20414241502020414241502020EE
:1006D0002020202020202020202020208D415099E3
:1006E0008B208D4150998B208D4150998B208D41CD
:1006F00050998B020209022804090042303030313F
:1007000030323033303430353036303730383039BD
:100710003041304230433044304530463130313161
:100720003132313331343135313631373138313995
:100730003141314231433144314531463230323139
:10074000323232333234323532363237323832396D
:100750003241324232433244324532463330333111
:100760003332333333343335333633373338333945
:100770003341334233433344334533462020202032
:100780002E2E01020C036C0509110000010000006F
:1007900001020F05290409200100010000000203E5
:1007A0000306F90709007F20414241502020202004
:1007B00020202020414241502020202020202020A5
:1007C000202020202020804F544F4220804F544F23
:1007D0004220804F544F422A414241502A204142F8
:1007E0004150202A414241502A2041424150202F6D
:1007F00050454B06857C50454B06855C50454B0665
:10080000852D50454B068520414241502020202017
:100810002020202041424150202020202020202044
:10082000202020202020804F544F4220804F544FC2
:100830004220804F544F422A414241502A20414297
:100840004150202A414241502A2041424150202F0C
:10085000549980412F7C549980417C5C549980410B
:100860005C2D549980412D20414241502020202070
:1008700020202020414241502020202020202020E4
:10088000202020202020804F544F4220804F544F62
:100890004220804F544F422A414241502A2A202070
:1008A00020202A2A414241502A2A202020202A2F73
:1008B00050454B06857C20202020205C50454B066F
:1008C000852D202020202020414241502020202022
:1008D0002020202041424150202020202020202084
:1008E000202020202020804F544F4220804F544F02
:1008F0004220804F544F422A414241502A2A202010
:1009000020202A2A414241502A2A202020202A2F12
:10091000549980412F7C202020207C5C5499804178
:100920005C2D202020202D2041424150202041429A
:100930004150202020202020202020202020202066
:100940008D4150998B208D4150998B208D4150992C
:100950008B208D4150998B204142415020204142B3
:100960004150202020202020202020202020202036
:100970008D4150998B208D4150998B208D415099FC
:100980008B208D4150998B20414241502020414283
:100990004150202020202020202020202020202006
:1009A0008D4150998B208D4150998B208D415099CC
:1009B0008B208D4150998B20414241502020414253
:1009C00041502020202020202020202020202020D6
:1009D0008D4150998B208D4150998B208D4150999C
:1009E0008B208D4150998B20414241502020414223
:1009F00041502020202020202020202020202020A6
:100A00008D4150998B208D4150998B208D4150996B
:100A10008B208D4150998B204142415020204142F2
:100A20004150202020202020202020202020202075
:100A30008D4150998B208D4150998B208D4150993B
:100A40008B208D4150998B204142415020204142C2
:100A50004150202020202020202020202020202045
:100A60008D4150998B208D4150998B208D4150990B
:100A70008B208D4150998B20414241502020414292
:100A80004150202020202020202020202020202015
:100A90008D4150998B208D4150998B208D415099DB
:100AA0008B208D4150998B020309021008090042E6
:100AB000303030313032303330343035303630371A
:100AC00030383039304130423043304430453046A0
:100AD00031303131313231333134313531363137F2
:100AE0003138313931413142314331443145314678
:100AF00032303231323232333234323532363237CA
:100B0000323832393241324232433244324532464F
:100B100033303331333233333334333533363337A1
:100B20003338333933413342334333443345334627
:100B3000202020202E2E01030C035409091100004F
:100B40000100000001030F05110809200100010048
:100B5000000002040306E10B09007F2041424150DE
:100B600020202020202020204142415020202020F1
:100B700020202020202020202020804F544F422061
:100B8000804F544F4220804F544F422A414241509F
:100B90002A2041424150202A414241502A204142CC
:100BA0004150202F50454B06857C50454B06855CB7
:100BB00050454B06852D50454B06852041424150FE
:100BC0002020202020202020414241502020202091
:100BD00020202020202020202020804F544F422001
:100BE000804F544F4220804F544F422A414241503F
:100BF0002A2041424150202A414241502A2041426C
:100C00004150202F549980412F7C549980417C5C25
:100C1000549980415C2D549980412D20414241508E
:100C20002020202020202020414241502020202030
:100C300020202020202020202020804F544F4220A0
:100C4000804F544F4220804F544F422A41424150DE
:100C50002A2A202020202A2A414241502A2A2020C4
:100C600020202A2F50454B06857C20202020205C08
:100C700050454B06852D2020202020204142415008
:100C800020202020202020204142415020202020D0
:100C900020202020202020202020804F544F422040
:100CA000804F544F4220804F544F422A414241507E
:100CB0002A2A202020202A2A414241502A2A202064
:100CC00020202A2F549980412F7C202020207C5CDA
:100CD000549980415C2D202020202D2041424150FC
:100CE0002020414241502020202020202020202070
:100CF000202020208D4150998B208D4150998B20B0
:100D00008D4150998B208D4150998B20414241500B
:100D1000202041424150202020202020202020203F
:100D2000202020208D4150998B208D4150998B207F
:100D30008D4150998B208D4150998B2041424150DB
:100D4000202041424150202020202020202020200F
:100D5000202020208D4150998B208D4150998B204F
:100D60008D4150998B208D4150998B2041424150AB
:100D700020204142415020202020202020202020DF
:100D8000202020208D4150998B208D4150998B201F
:100D90008D4150998B208D4150998B20414241507B
:100DA00020204142415020202020202020202020AF
:100DB000202020208D4150998B208D4150998B20EF
:100DC0008D4150998B208D4150998B20414241504B
:100DD000202041424150202020202020202020207F
:100DE000202020208D4150998B208D4150998B20BF
:100DF0008D4150998B208D4150998B20414241501B
:100E0000202041424150202020202020202020204E
:100E1000202020208D4150998B208D4150998B208E
:100E20008D4150998B208D4150998B2041424150EA
:100E3000202041424150202020202020202020201E
:100E4000202020208D4150998B208D4150998B205E
:100E50008D4150998B208D4150998B02040902F8E5
:100E60000B090042303030313032303330343035DD
:100E7000303630373038303930413042304330440A
:100E80003045304631303131313231333134313522
:100E900031363137313831393141314231433144E2
:100EA00031453146323032313232323332343235FA
:100EB00032363237323832393241324232433244BA
:100EC00032453246333033313332333333343335D2
:100ED0003336333733383339334133423343334492
:100EE00033453346202020202E2E01040C033C0DD8
:100EF000091100000100000001040F05F90B092091
:100F000001000100000002050306C90F09007F204F
:100F100041424150202020202020202041424150A9
:100F20002020202020202020202020202020804F32
:100F3000544F4220804F544F4220804F544F422AFA
:100F4000414241502A2041424150202A41424150D1
:100F50002A2041424150202F50454B06857C504568
:100F60004B06855C50454B06852D50454B0685202C
:100F70004142415020202020202020204142415049
:100F80002020202020202020202020202020804FD2
:100F9000544F4220804F544F4220804F544F422A9A
:100FA000414241502A2041424150202A4142415071
:100FB0002A2041424150202F549980412F7C54993E
:100FC00080417C5C549980415C2D549980412D2056
:100FD00041424150202020202020202041424150E9
:100FE0002020202020202020202020202020804F72
:100FF000544F4220804F544F4220804F544F422A3A
:10100000414241502A2A202020202A2A4142415090
:101010002A2A202020202A2F50454B06857C20207C
:101020002020205C50454B06852D202020202020AC
:101030004142415020202020202020204142415088
:101040002020202020202020202020202020804F11
:10105000544F4220804F544F4220804F544F422AD9
:10106000414241502A2A202020202A2A4142415030
:101070002A2A202020202A2F549980412F7C2020AA
:1010800020207C5C549980415C2D202020202D2044
:101090004142415020204142415020202020202028
:1010A00020202020202020208D4150998B208D4110
:1010B00050998B208D4150998B208D4150998B20D8
:1010C00041424150202041424150202020202020F8
:1010D00020202020202020208D4150998B208D41E0
:1010E00050998B208D4150998B208D4150998B20A8
:1010F00041424150202041424150202020202020C8
:1011000020202020202020208D4150998B208D41AF
:1011100050998B208D4150998B208D4150998B2077
:101120004142415020204142415020202020202097
:1011300020202020202020208D4150998B208D417F
:1011400050998B208D4150998B208D4150998B2047
:101150004142415020204142415020202020202067
:1011600020202020202020208D4150998B208D414F
:1011700050998B208D4150998B208D4150998B2017
:101180004142415020204142415020202020202037
:1011900020202020202020208D4150998B208D411F
:1011A00050998B208D4150998B208D4150998B20E7
:1011B0004142415020204142415020202020202007
:1011C00020202020202020208D4150998B208D41EF
:1011D00050998B208D4150998B208D4150998B20B7
:1011E00041424150202041424150202020202020D7
:1011F00020202020202020208D4150998B208D41BF
:1012000050998B208D4150998B208D4150998B02A4
:10121000050902E00F0900423030303130323033FE
:101220003034303530363037303830393041304274
:101230003043304430453046313031313132313352
:10124000313431353136313731383139314131424C
:10125000314331443145314632303231323232332A
:101260003234323532363237323832393241324224
:101270003243324432453246333033313332333302
:1012800033343335333633373338333933413342FC
:101290003343334433453346202020202E2E01058E
:1012A0000C032411091100000100000001050F05C5
:1012B000E10F0920010001000000075110541057F0
:1012C000105A105D10601063100C0302110202002E
:1012D000010101010202010603010A140112791041
:1012E000E31E10000C5B315DD1EEF1F2EEFFEDE894
:1012F000E524C21004120D159C15AA15B815C615C3
:10130000D415E215F015FE1507199619A419B2198E
:10131000C019CE19DC19EA19F819011D901D9E1D7E
:10132000AC1DBA1DC81DD61DE41DF21D811E8F1EE9
:101330009D1EAB1EB91EC71ED51E001020202020EA
:1013400020202020859131202020202020202020B6
:101350002042583A202020204220202020202020F7
:10136000202080904295583A2020202042202020A2
:10137000204120202020809054454D852D50412033
:10138000202020206D617820202020202020202077
:101390002020202085913220202020202020202065
:1013A0002042583A202020204220202020202020A7
:1013B000202080904295583A202020204220202052
:1013C000204120202020809054454D852D504120E3
:1013D000202020206D617820202020202020202027
:1013E0002020202085913320202020202020202014
:1013F0002042583A20202020422020202020202057
:10140000202080904295583A202020204220202001
:10141000204120202020809054454D852D50412092
:10142000202020206D6178202020202020202020D6
:1014300020202020859134202020202020202020C2
:101440002042583A20202020422020202020202006
:10145000202080904295583A2020202042202020B1
:10146000204120202020809054454D852D50412042
:10147000202020206D6178202020202002000C06F2
:10148000110409007F2041424150202020202020CB
:1014900020204142415020202020202020202020B8
:1014A00020202020804F544F4220804F544F422014
:1014B000804F544F422A414241502A2041424150DC
:1014C000202A414241502A2041424150202F50457C
:1014D0004B06857C50454B06855C50454B06852D5B
:1014E00050454B068520414241502020202020209D
:1014F0002020414241502020202020202020202058
:1015000020202020804F544F4220804F544F4220B3
:10151000804F544F422A414241502A20414241507B
:10152000202A414241502A2041424150202F5499C3
:1015300080412F7C549980417C5C549980415C2D82
:10154000549980412D2041424150202020202020CC
:1015500020204142415020202020202020202020F7
:1015600020202020804F544F4220804F544F422053
:10157000804F544F422A414241502A2A20202020A5
:101580002A2A414241502A2A202020202A2F504531
:101590004B06857C20202020205C50454B06852D65
:1015A00020202020202041424150202020202020A7
:1015B0002020414241502020202020202020202097
:1015C00020202020804F544F4220804F544F4220F3
:1015D000804F544F422A414241502A2A2020202045
:1015E0002A2A414241502A2A202020202A2F549979
:1015F00080412F7C202020207C5C549980415C2DF0
:10160000202020202D2041424150202041424150A5
:1016100020202020202020202020202020208D413C
:1016200050998B208D4150998B208D4150998B2062
:101630008D4150998B2041424150202041424150E0
:1016400020202020202020202020202020208D410C
:1016500050998B208D4150998B208D4150998B2032
:101660008D4150998B2041424150202041424150B0
:1016700020202020202020202020202020208D41DC
:1016800050998B208D4150998B208D4150998B2002
:101690008D4150998B204142415020204142415080
:1016A00020202020202020202020202020208D41AC
:1016B00050998B208D4150998B208D4150998B20D2
:1016C0008D4150998B204142415020204142415050
:1016D00020202020202020202020202020208D417C
:1016E00050998B208D4150998B208D4150998B20A2
:1016F0008D4150998B204142415020204142415020
:1017000020202020202020202020202020208D414B
:1017100050998B208D4150998B208D4150998B2071
:101720008D4150998B2041424150202041424150EF
:1017300020202020202020202020202020208D411B
:1017400050998B208D4150998B208D4150998B2041
:101750008D4150998B2041424150202041424150BF
:1017600020202020202020202020202020208D41EB
:1017700050998B208D4150998B208D4150998B2011
:101780008D4150998B02001202280409004230302A
:101790003031303230333034303530363037303825
:1017A00030393041304230433044304530463130BA
:1017B00031313132313331343135313631373138FD
:1017C0003139314131423143314431453146323092
:1017D00032313232323332343235323632373238D5
:1017E000323932413242324332443245324633306A
:1017F00033313332333333343335333633373338AD
:101800003339334133423343334433453346202065
:1018100020202E2E01010404440409203028FF7FDB
:10182000000001010F03750409200100640000009D
:10183000010204043D0409203028FF7F000001025A
:101840000A032F0409206B04FF7F000001020E042D
:101850007104092001006400000001030803F30380
:1018600009200100000100000103100321040920E8
:1018700001000001000002040C06F90709007F20A6
:101880004142415020202020202020204142415030
:101890002020202020202020202020202020804FB9
:1018A000544F4220804F544F4220804F544F422A81
:1018B000414241502A2041424150202A4142415058
:1018C0002A2041424150202F50454B06857C5045EF
:1018D0004B06855C50454B06852D50454B068520B3
:1018E00041424150202020202020202041424150D0
:1018F0002020202020202020202020202020804F59
:10190000544F4220804F544F4220804F544F422A20
:10191000414241502A2041424150202A41424150F7
:101920002A2041424150202F549980412F7C5499C4
:1019300080417C5C549980415C2D549980412D20DC
:10194000414241502020202020202020414241506F
:101950002020202020202020202020202020804FF8
:10196000544F4220804F544F4220804F544F422AC0
:10197000414241502A2A202020202A2A4142415017
:101980002A2A202020202A2F50454B06857C202003
:101990002020205C50454B06852D20202020202033
:1019A000414241502020202020202020414241500F
:1019B0002020202020202020202020202020804F98
:1019C000544F4220804F544F4220804F544F422A60
:1019D000414241502A2A202020202A2A41424150B7
:1019E0002A2A202020202A2F549980412F7C202031
:1019F00020207C5C549980415C2D202020202D20CB
:101A000041424150202041424150202020202020AE
:101A100020202020202020208D4150998B208D4196
:101A200050998B208D4150998B208D4150998B205E
:101A3000414241502020414241502020202020207E
:101A400020202020202020208D4150998B208D4166
:101A500050998B208D4150998B208D4150998B202E
:101A6000414241502020414241502020202020204E
:101A700020202020202020208D4150998B208D4136
:101A800050998B208D4150998B208D4150998B20FE
:101A9000414241502020414241502020202020201E
:101AA00020202020202020208D4150998B208D4106
:101AB00050998B208D4150998B208D4150998B20CE
:101AC00041424150202041424150202020202020EE
:101AD00020202020202020208D4150998B208D41D6
:101AE00050998B208D4150998B208D4150998B209E
:101AF00041424150202041424150202020202020BE
:101B000020202020202020208D4150998B208D41A5
:101B100050998B208D4150998B208D4150998B206D
:101B2000414241502020414241502020202020208D
:101B300020202020202020208D4150998B208D4175
:101B400050998B208D4150998B208D4150998B203D
:101B5000414241502020414241502020202020205D
:101B600020202020202020208D4150998B208D4145
:101B700050998B208D4150998B208D4150998B022B
:101B80000412021008090042303030313032303354
:101B900030343035303630373038303930413042FB
:101BA00030433044304530463130313131323133D9
:101BB00031343135313631373138313931413142D3
:101BC00031433144314531463230323132323233B1
:101BD00032343235323632373238323932413242AB
:101BE0003243324432453246333033313332333389
:101BF0003334333533363337333833393341334283
:101C00003343334433453346202020202E2E010514
:101C100004042C0809203028FF7F000001050F0371
:101C20005D08092001006400000001060404250885
:101C300009203028FF7F000001060A031708092049
:101C40006B04FF7F000001060E0459080920010003
:101C50006400000001070803DB0709200100000100
:101C6000000001071003090809200100000100001D
:101C700002080C06E10B09007F2041424150202060
:101C800020202020202041424150202020202020C0
:101C90002020202020202020804F544F4220804FA1
:101CA000544F4220804F544F422A414241502A20F3
:101CB00041424150202A414241502A204142415054
:101CC000202F50454B06857C50454B06855C504582
:101CD0004B06852D50454B06852041424150202022
:101CE0002020202020204142415020202020202060
:101CF0002020202020202020804F544F4220804F41
:101D0000544F4220804F544F422A414241502A2092
:101D100041424150202A414241502A2041424150F3
:101D2000202F549980412F7C549980417C5C549998
:101D300080415C2D549980412D204142415020200A
:101D400020202020202041424150202020202020FF
:101D50002020202020202020804F544F4220804FE0
:101D6000544F4220804F544F422A414241502A2A28
:101D7000202020202A2A414241502A2A20202020A7
:101D80002A2F50454B06857C20202020205C504582
:101D90004B06852D2020202020204142415020202C
:101DA000202020202020414241502020202020209F
:101DB0002020202020202020804F544F4220804F80
:101DC000544F4220804F544F422A414241502A2AC8
:101DD000202020202A2A414241502A2A2020202047
:101DE0002A2F549980412F7C202020207C5C5499FC
:101DF00080415C2D202020202D2041424150202078
:101E0000414241502020202020202020202020203E
:101E100020208D4150998B208D4150998B208D41F0
:101E200050998B208D4150998B2041424150202068
:101E3000414241502020202020202020202020200E
:101E400020208D4150998B208D4150998B208D41C0
:101E500050998B208D4150998B2041424150202038
:101E600041424150202020202020202020202020DE
:101E700020208D4150998B208D4150998B208D4190
:101E800050998B208D4150998B2041424150202008
:101E900041424150202020202020202020202020AE
:101EA00020208D4150998B208D4150998B208D4160
:101EB00050998B208D4150998B20414241502020D8
:101EC000414241502020202020202020202020207E
:101ED00020208D4150998B208D4150998B208D4130
:101EE00050998B208D4150998B20414241502020A8
:101EF000414241502020202020202020202020204E
:101F000020208D4150998B208D4150998B208D41FF
:101F100050998B208D4150998B2041424150202077
:101F2000414241502020202020202020202020201D
:101F300020208D4150998B208D4150998B208D41CF
:101F400050998B208D4150998B2041424150202047
:101F500041424150202020202020202020202020ED
:101F600020208D4150998B208D4150998B208D419F
:101F700050998B208D4150998B02081202F80B0961
:101F8000004230303031303230333034303530365A
:101F900030373038303930413042304330443045CA
:101FA00030463130313131323133313431353136FF
:101FB00031373138313931413142314331443145A2
:101FC00031463230323132323233323432353236D7
:101FD000323732383239324132423243324432457A
:101FE00032463330333133323333333433353336AF
:101FF0003337333833393341334233433344334552
:102000003346202020202E2E01090404140C092020
:102010003028FF7F000001090F03450C0920010053
:1020200064000000010A04040D0C09203028FF7F21
:102030000000010A0A03FF0B09206B04FF7F000068
:10204000010A0E04410C0920010064000000010B8C
:102050000803C30B0920010000010000010B10035D
:10206000F10B0920010000010000020C1202E00F38
:102070000900423030303130323033303430353096
:1020800036303730383039304130423043304430E8
:1020900045304631303131313231333134313531FF
:1020A00036313731383139314131423143314431C0
:1020B00045314632303231323232333234323532D7
:1020C0003632373238323932413242324332443298
:1020D00045324633303331333233333334333533AF
:1020E0003633373338333933413342334333443370
:1020F000453346202020202E2E010D0404FC0F091C
:10210000203028FF7F0000010D0F032D1009200152
:102110000064000000010E0404F50F09203028FFC0
:102120007F0000010E0A03E70F09206B04FF7F0008
:1021300000010E0E042910092001006400000001B6
:102140000F0803AB0F0920010000010000010F1070
:1021500003D90F09200100000100000BFA1EFD1E2B
:10216000001F031F061F091F0C1F0F1F151F1B1F1A
:10217000211F0D03040B02040901000101020201E9
:102180000603010A1401120F005E11D49D0F00A670
:1021900005D49D0F008E09D49D0F00760DD49D3877
:1021A0001F992402000A5B325DCEF8E8E1EAE831CB
:1021B000023D1F531F00012048458E438550414278
:1021C000484F43548E208591312020050100140290
:1021D0000509004203303020858E5441488E452049
:1021E0002B3556202020202020303120858E544150
:1021F000488E45202B332E3356202020203032208D
:10220000858E5441488E45202B3234562020202084
:1022100020303320858E5441488E45202B31355651
:102220002020202020303420438A4F9A20858E544D
:1022300041488E992020202020303520484185506B
:10224000998C45488E45204443203C203030362030
:10225000065445914B412042208D4245484520443B
:102260004330372054454D85455041540650412058
:102270003E204D4158303820854F8C41502042201F
:102280008E48424550544F5045303920854F8C413F
:10229000502042958550994D8E54458F993041205C
:1022A0005245462E2B41342E303936563C4D494E40
:1022B000203042205245462E2B41342E303936569E
:1022C0003E4D415820304320858E5441488E452054
:1022D0002B413135563C4D494E304420858E54417A
:1022E000488E45202B413135563E4D4158304520D2
:1022F000858E5441488E45202D413135563C4D49FF
:102300004E304620858E5441488E45202D41313532
:10231000563E4D4158313020544F4B2087418D95CA
:102320002041203E204D415820313120544F4B2038
:1023300087418D952043203E204D41582031322049
:10234000544F4B2087418D952042203E204D4158CF
:10235000203133204295584F8B484F9A20544F4B91
:10236000203E4D41583134204F928E8A4B412044BB
:1023700052562087418D9520413135204F928E8ACB
:102380004B41204452562087418D952043313620C1
:102390004F928E8A4B41204452562087418D952082
:1023A00042313720438A4F9A208E48424550544F3D
:1023B0005041202020313820438A4F9A204B8F8A69
:1023C00050422087418D952041313920438A4F9AD0
:1023D000204B8F8A50422087418D952043314120E8
:1023E000438A4F9A204B8F8A50422087418D9520F7
:1023F0004231422043064D4D41204295582E2054F3
:102400004F4B4F422031432048418550998C4548DD
:102410008E452044433E4D4158314420438A4F9AD3
:10242000204F508E45485441908E8E2020314520BB
:102430004295582E914143544F5441203E204D41E6
:102440005831462050458D455042484199204142DF
:1024500041508E992032302050458D4550424841A0
:102460009920414241508E992032312050458D456E
:10247000504248419920414241508E9920323220A9
:1024800050458D45504248419920414241508E99D6
:102490002032332050458D455042484199204142D9
:1024A00041508E992032342042582E914143544F4E
:1024B0005441203E204D41582032352042582E9123
:1024C0004143544F5441203C204D494E2032362048
:1024D00050458D45504248419920414241508E9986
:1024E000203237204F928E8A4B4120445256209101
:1024F0004F8585455032382043064D4D4120425886
:102500002E2048418550998C2E32392050458D45DA
:10251000504248419920414241508E9920324120F9
:1025200050458D45504248419920414241508E9935
:102530002032422050458D45504248419920414229
:1025400041508E99203243204F8A509542205A4F55
:1025500048454C552020202020324420438A4F9A61
:1025600020854550454B8F2E434B4F502032452000
:1025700050458D45504248419920414241508E99E5
:1025800020324620438A4F9A208B4154912E544545
:102590004D8545502E333020544F4B2087418D952B
:1025A0002055203E204D415820333120544F4B20A0
:1025B00087418D952056203E204D415820333220B2
:1025C000544F4B2087418D952057203E204D415838
:1025D0002033332050458D45504248419920414297
:1025E00041508E99203334204F8A509542204B4FD2
:1025F0004854414B544F504120333520438A4F9A21
:10260000204B4F4854414B544F50412020333620EB
:102610004F8A509542209045858E208D4150998B50
:102620004133372050458D45504248419920414221
:1026300041508E992033382050458D4550424841B5
:102640009920414241508E9920333920438A4F9A34
:10265000204B8F8A504220544F4B4F422033412011
:10266000438A4F9A204B8F8A504220484185509987
:102670008C33422043064D4D412042582E20544F6A
:102680004B4F422020334320438A4F9A2042958566
:1026900050994D8E54458F99203344204F928E8A05
:1026A0004B41204452562087418D9520553345207B
:1026B0004F928E8A4B41204452562087418D95205F
:1026C000563346204F928E8A4B41204452562087E3
:1026D000418D9520572020202020202020202020C0
:1026E0002020202020202020202048458E43855077
:1026F0004142484F4354459A2048455420202D2DAF
:10270000204B4F4845902043858E434B41202D2D33
:10271000200CB224B524B824BB24BE24C124C42474
:10272000C724CA24CD24D024D6240C0501110401C9
:102730000D010309010000010102010603010A1451
:10274000011215010B18010B0F00A60575271A00C1
:10275000A605EA4EED244E2A02000A5B5F5DCEF824
:10276000E8E1EAE83202F224082500012048458E1B
:102770004385504142484F43548E2085913220205A
:1027800005010014EA0809004203303020858E5408
:1027900041488E45202B35562020202020203031E6
:1027A00020858E5441488E45202B332E33562020D1
:1027B0002020303220858E5441488E45202B3234E3
:1027C000562020202020303320858E5441488E45CD
:1027D000202B3135562020202020303420438A4FB2
:1027E0009A20858E5441488E992020202020303513
:1027F0002048418550998C45488E45204443203CD3
:102800002030303620065445914B412042208D42E5
:1028100045484520444330372054454D8545504177
:1028200054065041203E204D4158303820854F8C71
:1028300041502042208E48424550544F5045303937
:1028400020854F8C41502042958550994D8E54459E
:102850008F993041205245462E2B41342E30393647
:10286000563C4D494E203042205245462E2B413495
:102870002E303936563E4D415820304320858E54F7
:1028800041488E45202B413135563C4D494E304410
:1028900020858E5441488E45202B413135563E4D82
:1028A0004158304520858E5441488E45202D413178
:1028B00035563C4D494E304620858E5441488E4514
:1028C000202D413135563E4D4158313020544F4B2B
:1028D0002087418D952041203E204D4158203131A7
:1028E00020544F4B2087418D952043203E204D4161
:1028F0005820313220544F4B2087418D9520422063
:102900003E204D4158203133204295584F8B484F3F
:102910009A20544F4B203E4D41583134204F928ED7
:102920008A4B41204452562087418D9520413135B4
:10293000204F928E8A4B41204452562087418D95DC
:1029400020433136204F928E8A4B412044525620EC
:1029500087418D952042313720438A4F9A208E48F7
:10296000424550544F5041202020313820438A4F57
:102970009A204B8F8A50422087418D9520413139D2
:1029800020438A4F9A204B8F8A50422087418D9551
:102990002043314120438A4F9A204B8F8A50422056
:1029A00087418D95204231422043064D4D412042C2
:1029B00095582E20544F4B4F42203143204841859B
:1029C00050998C45488E452044433E4D41583144F2
:1029D00020438A4F9A204F508E45485441908E8E06
:1029E00020203145204295582E914143544F544167
:1029F000203E204D415831462050458D455042489B
:102A0000419920414241508E992032302050458DCD
:102A100045504248419920414241508E99203231DF
:102A20002050458D45504248419920414241508EA9
:102A3000992032322050458D4550424841992041DD
:102A40004241508E992032332050458D45504248A6
:102A5000419920414241508E992032342042582ED3
:102A6000914143544F5441203E204D41582032352E
:102A70002042582E914143544F5441203C204D490F
:102A80004E2032362050458D4550424841992041D4
:102A90004241508E99203237204F928E8A4B4120EE
:102AA00044525620914F8585455032382043064D7B
:102AB0004D412042582E2048418550998C2E323964
:102AC0002050458D45504248419920414241508E09
:102AD000992032412050458D45504248419920412E
:102AE0004241508E992032422050458D45504248F7
:102AF000419920414241508E99203243204F8A50C3
:102B00009542205A4F48454C5520202020203244E1
:102B100020438A4F9A20854550454B8F2E434B4F7B
:102B2000502032452050458D455042484199204122
:102B30004241508E9920324620438A4F9A208B4141
:102B400054912E54454D8545502E333020544F4BD3
:102B50002087418D952055203E204D41582033310E
:102B600020544F4B2087418D952056203E204D41CB
:102B70005820333220544F4B2087418D95205720C9
:102B80003E204D41582033332050458D455042481A
:102B9000419920414241508E99203334204F8A5030
:102BA0009542204B4F4854414B544F5041203335B0
:102BB00020438A4F9A204B4F4854414B544F504129
:102BC00020203336204F8A509542209045858E2014
:102BD0008D4150998B4133372050458D45504248A7
:102BE000419920414241508E992033382050458DE3
:102BF00045504248419920414241508E99203339F5
:102C000020438A4F9A204B8F8A504220544F4B4F7B
:102C10004220334120438A4F9A204B8F8A504220D2
:102C200048418550998C33422043064D4D41204206
:102C3000582E20544F4B4F422020334320438A4F7D
:102C40009A2042958550994D8E54458F9920334452
:102C5000204F928E8A4B41204452562087418D95B9
:102C600020553345204F928E8A4B412044525620A6
:102C700087418D9520563346204F928E8A4B4120B6
:102C80004452562087418D95205720202020202017
:102C9000202020202020202020202020202020480C
:102CA000458E4385504142484F4354459A204845FC
:102CB0005420202D2D204B4F4845902043858E4396
:102CC0004B41202D2D200D692A6C2A6F2A722A75FE
:102CD0002A782A7B2A7E2A812A842A872A8A2A908D
:102CE0002A0C05011104010D01040B010209010068
:102CF00000010102010603010A14011215010B185B
:102D0000010B0F008E0975271A008E09EA4EA72ABB
:102D1000083002000A5B5F5DCEF8E8E1EAE83302C2
:102D2000AC2AC22A00012048458E438550414248C2
:102D30004F43548E20859133202005010014D20C7E
:102D400009004203303020858E5441488E45202BA7
:102D50003556202020202020303120858E544148B7
:102D60008E45202B332E33562020202030322085D4
:102D70008E5441488E45202B32345620202020206E
:102D8000303320858E5441488E45202B31355620D6
:102D900020202020303420438A4F9A20858E5441B1
:102DA000488E992020202020303520484185509998
:102DB0008C45488E45204443203C20303036200648
:102DC0005445914B412042208D4245484520444383
:102DD00030372054454D8545504154065041203EE2
:102DE000204D4158303820854F8C41502042208E54
:102DF00048424550544F5045303920854F8C415002
:102E00002042958550994D8E54458F9930412052DE
:102E100045462E2B41342E303936563C4D494E20F6
:102E20003042205245462E2B41342E303936563E04
:102E30004D415820304320858E5441488E45202BEB
:102E4000413135563C4D494E304420858E544148E1
:102E50008E45202B413135563E4D41583045208519
:102E60008E5441488E45202D413135563C4D494EBA
:102E7000304620858E5441488E45202D41313556AF
:102E80003E4D4158313020544F4B2087418D952085
:102E900041203E204D415820313120544F4B208756
:102EA000418D952043203E204D4158203132205401
:102EB0004F4B2087418D952042203E204D41582088
:102EC0003133204295584F8B484F9A20544F4B2016
:102ED0003E4D41583134204F928E8A4B412044520E
:102EE000562087418D9520413135204F928E8A4B57
:102EF00041204452562087418D9520433136204F42
:102F0000928E8A4B41204452562087418D95204213
:102F1000313720438A4F9A208E48424550544F50B3
:102F200041202020313820438A4F9A204B8F8A50ED
:102F3000422087418D952041313920438A4F9A2084
:102F40004B8F8A50422087418D9520433141204349
:102F50008A4F9A204B8F8A50422087418D9520427C
:102F600031422043064D4D41204295582E20544F6A
:102F70004B4F422031432048418550998C45488E23
:102F8000452044433E4D4158314420438A4F9A20C6
:102F90004F508E45485441908E8E2020314520421E
:102FA00095582E914143544F5441203E204D415855
:102FB00031462050458D455042484199204142417B
:102FC000508E992032302050458D455042484199CD
:102FD00020414241508E992032312050458D45503C
:102FE0004248419920414241508E9920323220502E
:102FF000458D45504248419920414241508E99208B
:1030000032332050458D455042484199204142413C
:10301000508E992032342042582E914143544F54BF
:1030200041203E204D41582032352042582E9141BA
:1030300043544F5441203C204D494E2032362050BD
:10304000458D45504248419920414241508E99203A
:103050003237204F928E8A4B412044525620914F56
:103060008585455032382043064D4D412042582E2B
:103070002048418550998C2E32392050458D45503D
:103080004248419920414241508E9920324120507E
:10309000458D45504248419920414241508E9920EA
:1030A00032422050458D455042484199204142418D
:1030B000508E99203243204F8A509542205A4F48D3
:1030C000454C552020202020324420438A4F9A200E
:1030D000854550454B8F2E434B4F50203245205055
:1030E000458D45504248419920414241508E99209A
:1030F000324620438A4F9A208B4154912E54454D9D
:103100008545502E333020544F4B2087418D9520DC
:1031100055203E204D415820333120544F4B2087BD
:10312000418D952056203E204D4158203332205469
:103130004F4B2087418D952057203E204D415820F0
:1031400033332050458D45504248419920414241FA
:10315000508E99203334204F8A509542204B4F484F
:1031600054414B544F504120333520438A4F9A20CD
:103170004B4F4854414B544F504120203336204F41
:103180008A509542209045858E208D4150998B41E3
:1031900033372050458D45504248419920414241A6
:1031A000508E992033382050458D455042484199E2
:1031B00020414241508E9920333920438A4F9A2032
:1031C0004B8F8A504220544F4B4F42203341204373
:1031D0008A4F9A204B8F8A50422048418550998CC3
:1031E00033422043064D4D412042582E20544F4B30
:1031F0004F422020334320438A4F9A2042958550E6
:10320000994D8E54458F99203344204F928E8A4B8E
:1032100041204452562087418D9520553345204FFB
:10322000928E8A4B41204452562087418D952056DC
:103230003346204F928E8A4B41204452562087417C
:103240008D95205720202020202020202020202065
:1032500020202020202020202048458E43855041DA
:1032600042484F4354459A2048455420202D2D2054
:103270004B4F4845902043858E434B41202D2D20B8
:103280000D2330263029302C302F30323035303875
:10329000303B303E30413044304A300C050111049F
:1032A000010D01050B0103090100000101020106E6
:1032B00003010A14011215010B18010B0F00760D02
:1032C00075271A00760DEA4E6130C23502000A5B9E
:1032D0005F5DCEF8E8E1EAE8340266307C30000158
:1032E0002048458E4385504142484F43548E2085A7
:1032F0009134202005010014BA1009004203303037
:1033000020858E5441488E45202B35562020202084
:103310002020303120858E5441488E45202B332E7D
:10332000335620202020303220858E5441488E454F
:10333000202B3234562020202020303320858E54FC
:1033400041488E45202B3135562020202020303416
:1033500020438A4F9A20858E5441488E9920202000
:10336000202030352048418550998C45488E452095
:103370004443203C2030303620065445914B4120B8
:1033800042208D4245484520444330372054454D26
:103390008545504154065041203E204D415830381B
:1033A00020854F8C41502042208E48424550544F3A
:1033B0005045303920854F8C415020429585509999
:1033C0004D8E54458F993041205245462E2B413425
:1033D0002E303936563C4D494E203042205245461B
:1033E0002E2B41342E303936563E4D415820304335
:1033F00020858E5441488E45202B413135563C4D19
:10340000494E304420858E5441488E45202B413111
:1034100035563E4D4158304520858E5441488E45A5
:10342000202D413135563C4D494E304620858E5435
:1034300041488E45202D413135563E4D4158313061
:1034400020544F4B2087418D952041203E204D41F7
:103450005820313120544F4B2087418D95204320F7
:103460003E204D415820313220544F4B2087418D12
:10347000952042203E204D4158203133204295581E
:103480004F8B484F9A20544F4B203E4D415831347A
:10349000204F928E8A4B41204452562087418D9571
:1034A00020413135204F928E8A4B41204452562084
:1034B00087418D9520433136204F928E8A4B412093
:1034C0004452562087418D952042313720438A4F00
:1034D0009A208E48424550544F5041202020313888
:1034E00020438A4F9A204B8F8A50422087418D95E6
:1034F0002041313920438A4F9A204B8F8A504220F5
:1035000087418D952043314120438A4F9A204B8F2C
:103510008A50422087418D95204231422043064DFA
:103520004D41204295582E20544F4B4F422031435D
:103530002048418550998C45488E452044433E4D56
:103540004158314420438A4F9A204F508E45485469
:1035500041908E8E20203145204295582E91414336
:10356000544F5441203E204D415831462050458D06
:1035700045504248419920414241508E9920323075
:103580002050458D45504248419920414241508E3E
:10359000992032312050458D455042484199204173
:1035A0004241508E992032322050458D455042483C
:1035B000419920414241508E992032332050458D0F
:1035C00045504248419920414241508E9920323421
:1035D0002042582E914143544F5441203E204D41AA
:1035E000582032352042582E914143544F544120A7
:1035F0003C204D494E2032362050458D45504248A2
:10360000419920414241508E99203237204F928E6D
:103610008A4B412044525620914F8585455032387F
:103620002043064D4D412042582E20484185509957
:103630008C2E32392050458D4550424841992041C9
:103640004241508E992032412050458D455042488C
:10365000419920414241508E992032422050458D5F
:1036600045504248419920414241508E9920324371
:10367000204F8A509542205A4F48454C55202020D3
:103680002020324420438A4F9A20854550454B8F55
:103690002E434B4F502032452050458D45504248D7
:1036A000419920414241508E9920324620438A4F11
:1036B0009A208B4154912E54454D8545502E3330E0
:1036C00020544F4B2087418D952055203E204D4161
:1036D0005820333120544F4B2087418D9520562060
:1036E0003E204D415820333220544F4B2087418D8E
:1036F000952057203E204D41582033332050458D92
:1037000045504248419920414241508E99203334DE
:10371000204F8A509542204B4F4854414B544F50B4
:103720004120333520438A4F9A204B4F4854414B18
:10373000544F504120203336204F8A5095422090DC
:1037400045858E208D4150998B4133372050458DD2
:1037500045504248419920414241508E992033388A
:103760002050458D45504248419920414241508E5C
:103770009920333920438A4F9A204B8F8A50422018
:10378000544F4B4F4220334120438A4F9A204B8F56
:103790008A50422048418550998C33422043064D3F
:1037A0004D412042582E20544F4B4F42202033434E
:1037B00020438A4F9A2042958550994D8E54458FCB
:1037C00099203344204F928E8A4B412044525620F8
:1037D00087418D9520553345204F928E8A4B41204D
:1037E0004452562087418D9520563346204F928E65
:1037F0008A4B41204452562087418D9520572020E6
:1038000020202020202020202020202020202020B8
:1038100020202048458E4385504142484F4354451F
:103820009A2048455420202D2D204B4F484590206C
:1038300043858E434B41202D2D200CDB35DE35E1B9
:1038400035E435E735EA35ED35F035F335F635F95C
:1038500035FF350C05011104010B010409010000BD
:10386000010102010603010A14011215010B1801DE
:103870000B0F005E1175271A005E11EA4E1A36CF43
:10388000370C000E5B335DD1F2E0F2E8F1F2E8EACA
:10389000E0310D353627373537433751375F376DD0
:1038A000377B3789379737A537B337C137000C4394
:1038B0005441548E43548E4B412085913120202019
:1038C0002020204250454D992050418A4F54952048
:1038D000913A4D4D3A434320204F8A93454520204D
:1038E00020202020203A20203A202050418A4F9149
:1038F0004545202020202020203A20203A20204327
:103900005441548E43548E4B4120859131204B427B
:10391000542A91854F5450458A8F2E2020202020F4
:103920002020202020202050454B068545502E2069
:103930002D202020202020202020202020208E54D8
:103940004F804F2020202020202020202020204396
:103950005441548E43548E4B412085913120202078
:1039600020202020202020202085504F8A45802C98
:10397000204B4D20202020202020202020202020EF
:1039800020202020202020202020208B4154412056
:1039900020202020202E2020202020202020200138
:1039A00002070768050A2001000100000001020F5C
:1039B000026A050930010001000000010212026BD9
:1039C0000509300100010000000103070764050A32
:1039D0002001000100000001030F0266050930010B
:1039E0000001000000010312026705093001000117
:1039F00000000001050A0A5E050A3101000100000D
:103A00000001060A0A60050A3101000100000001F8
:103A1000070A0A62050A31010001000000010A09D3
:103A20000B5C050A33010001000000010B05055A7B
:103A3000050932010001000000010B0B045B0509C0
:103A40003001000100000008E037E337E637E937CE
:103A5000EC37EF37F237F5370C03041102040D0190
:103A60000709010000010101010203010A1401120A
:103A70000D38C2390C000E5B5F5DD1F2E0F2E8F167
:103A8000F2E8EAE0320D28381A3928393639443953
:103A9000523960396E397C398A399839A639B43946
:103AA000000C435441548E43548E4B412085913237
:103AB0002020202020204250454D992050418A4FFF
:103AC000549520913A4D4D3A434320204F8A9345D7
:103AD00045202020202020203A20203A202050413C
:103AE0008A4F914545202020202020203A20203A4E
:103AF0002020435441548E43548E4B4120859132B3
:103B0000204B42542A91854F5450458A8F2E2020B5
:103B10002020202020202020202050454B068545B5
:103B2000502E202D2020202020202020202020204A
:103B3000208E544F804F2020202020202020202025
:103B40002020435441548E43548E4B412085913262
:103B500020202020202020202020202085504F8A37
:103B600045802C204B4D202020202020202020206C
:103B700020202020202020202020202020208B41B9
:103B800054412020202020202E20202020202020D2
:103B900020200102070750090A200100010000004F
:103BA00001020F0252090930010001000000010268
:103BB0001202530909300100010000000103070748
:103BC0004C090A2001000100000001030F024E0908
:103BD0000930010001000000010312024F09093001
:103BE00001000100000001050A0A46090A3101002E
:103BF0000100000001060A0A48090A31010001001B
:103C0000000001070A0A4A090A3101000100000008
:103C1000010A090B44090A33010001000000010BED
:103C2000050542090932010001000000010B0B04E7
:103C30004309093001000100000009D539D839DBFA
:103C400039DE39E139E439E739EA39ED390C030471
:103C50001102040B01060D01080901000001010118
:103C6000010203010A140112053ABA3B0C000E5B73
:103C70005F5DD1F2E0F2E8F1F2E8EAE0330D203ADC
:103C8000123B203B2E3B3C3B4A3B583B663B743B44
:103C9000823B903B9E3BAC3B000C435441548E43D3
:103CA000548E4B41208591332020202020204250EB
:103CB000454D992050418A4F549520913A4D4D3AA7
:103CC000434320204F8A9345452020202020202058
:103CD0003A20203A202050418A4F9145452020200B
:103CE000202020203A20203A2020435441548E4363
:103CF000548E4B4120859133204B42542A91854F5D
:103D00005450458A8F2E2020202020202020202043
:103D1000202050454B068545502E202D2020202068
:103D20002020202020202020208E544F804F202033
:103D300020202020202020202020435441548E4346
:103D4000548E4B412085913320202020202020209C
:103D50002020202085504F8A45802C204B4D20204C
:103D60002020202020202020202020202020202053
:103D70002020202020208B41544120202020202062
:103D80002E20202020202020202001020707380D8F
:103D90000A2001000100000001020F023A0D093063
:103DA000010001000000010212023B0D0930010078
:103DB0000100000001030707340D0A200100010083
:103DC000000001030F02360D093001000100000060
:103DD00001031202370D0930010001000000010546
:103DE0000A0A2E0D0A3101000100000001060A0A2C
:103DF000300D0A3101000100000001070A0A320DEE
:103E00000A31010001000000010A090B2C0D0A33E0
:103E1000010001000000010B05052A0D0922010027
:103E200001000000010B0B042B0D09300100010003
:103E3000000009CD3BD03BD33BD63BD93BDC3BDF3D
:103E40003BE23BE53B0C03041102040B01070D01AF
:103E50000909010000010101010203010A14011214
:103E6000FD3BB23D0C000E5B5F5DD1F2E0F2E8F18C
:103E7000F2E8EAE0340D183C0A3D183D263D343D99
:103E8000423D503D5E3D6C3D7A3D883D963DA43DB2
:103E9000000C435441548E43548E4B412085913441
:103EA0002020202020204250454D992050418A4F0B
:103EB000549520913A4D4D3A434320204F8A9345E3
:103EC00045202020202020203A20203A2020504148
:103ED0008A4F914545202020202020203A20203A5A
:103EE0002020435441548E43548E4B4120859134BD
:103EF000204B42542A91854F5450458A8F2E2020C2
:103F00002020202020202020202050454B068545C1
:103F1000502E202D20202020202020202020202056
:103F2000208E544F804F2020202020202020202031
:103F30002020435441548E43548E4B41208591346C
:103F400020202020202020202020202085504F8A43
:103F500045802C204B4D2020202020202020202078
:103F600020202020202020202020202020208B41C5
:103F700054412020202020202E20202020202020DE
:103F800020200102070720110A2001000100000083
:103F900001020F022211093001000100000001029C
:103FA000120223110930010001000000010307077C
:103FB0001C110A2001000100000001030F021E1164
:103FC0000930010001000000010312021F11093035
:103FD00001000100000001050A0A16110A31010062
:103FE0000100000001060A0A18110A31010001004F
:103FF000000001070A0A1A110A310100010000003D
:10400000010A090B14110A33010001000000010B21
:10401000050512110932010001000000010B0B041B
:104020001311093001000100000008C33DC63DC95D
:104030003DCC3DCF3DD23DD53DD83D0C03041102D2
:10404000040B010809010000010101010203010A3A
:10405000140112F53D8B3E0400135B345DD1EEF18B
:10406000F2EEFFEDE8E5C4EEF1F2F3EFE006023E1A
:10407000403E4F3E5E3E6D3E7C3E00038E8D4D4584
:104080004845488E4520854150414D4554504F424A
:104090002020434F43544F99488E45208B4F435423
:1040A00006854120859131208591322085913320EC
:1040B000859134208591302002030103B105090068
:1040C000014845548B412002030503990909000169
:1040D0004845548B412002030903810D0900014822
:1040E00045548B412002030D036911090001484525
:1040F000548B412002031103C901090001484554B2
:104100008B41200AA03EA33EA63EA93EAC3EAF3E58
:10411000B23EB53EB83EBB3E13011B1D0116140155
:104120001715011817011A160119090100000101DC
:10413000010102020106D43E3D4005000F5B2B5DEC
:10414000D1EBF3E6E5E1EDFBE928302911F73E5D1F
:104150003F6B3F793F873F953FA33FB13FBF3FCD87
:104160003FDB3FE93FF73F0540134021402F400030
:10417000052020202020202020202020202020205A
:10418000202020202020202020202020202020202F
:10419000202020202020202020202020202020201F
:1041A000202020202020202020202020202020200F
:1041B00020202020202020202020202020202020FF
:1041C0002041524A692041524A697641524A7662F8
:1041D00041524A622001000004220409100000013B
:1041E0000000000100050423040910000001000084
:1041F0000001000A0424040910000001000000016D
:10420000000F042504091000000100000001010056
:10421000040A080910000001000000010105040B58
:1042200008091000000100000001010A040C08093F
:104230001000000100000001010F040D080910002A
:10424000000100000001020004F20B09100000014F
:1042500000000001020504F30B091000000100003A
:104260000001020A04F40B09100000010000000123
:10427000020F04F50B09100000010000000103000B
:1042800004DA0F091000000100000001030504DB3F
:104290000F091000000100000001030A04DC0F09EF
:1042A0001000000100000001030F04DD0F091000E1
:1042B00000010000000D58405E4064406A407040BC
:1042C0007340764079407C407F4082408540884002
:1042D0000F00A6055F760F008E095F760F00760D42
:1042E0005F760F005E115F760C03011102010D0174
:1042F0000C09010000010101010202010603010A8B
:10430000040111A1403A4104000F5B5F5DD1EBF362
:10431000E6E5E1EDFBE928312909B440CA40D8407F
:10432000E640F440024110411E412C4100016C4323
:104330004E54202020202020205353576C20202032
:104340002020010005041F040910000001000000E6
:104350000100100420040910000001000000010108
:104360000504070809100000010000000101100405
:104370000808091000000100000001020504EF0B0D
:10438000091000000100000001021004F00B0910E8
:1043900000000100000001030504D70F0910000010
:1043A0000100000001031004D80F091000000100F3
:1043B00000000749414C414F415241554158415B32
:1043C000410B010B0D010D0901000001010101026A
:1043D00002010603010A7441E94208000F5B5F5DB8
:1043E000D1EBF3E6E5E1EDFBE92832290E9141330B
:1043F0004241424F425D426B42794287429542A31D
:1044000042B142BF42CD42DB4200086E3120202043
:104410002020206E756D626572562020202020209D
:10442000202020202020202020202020202020208C
:104430006D61782020202020202020202020202096
:10444000202020204D8E8020202020202020202071
:1044500020202020202020206D696E4350543020E1
:10446000204350543120204350543220202020201B
:10447000202020202020202034303030303D39438F
:1044800034306820202020202020202020202020C0
:104490002020202020202020202020202062677241
:1044A0006E6445786354696D6520200100100494A2
:1044B000050910000001000000010100058B05093D
:1044C00020010001000000010106058E0509200100
:1044D000000100000001010C049105091000000119
:1044E000000000010200058C050920010001000008
:1044F00000010206058F05092001000100000001EE
:10450000020C0492050910000001000000010300E4
:10451000058D05092001000100000001030605903A
:1045200005092001000100000001030C04930509A6
:10453000100000010000000105000595050920019B
:104540000001000000010600059605092001000198
:104550000000000107000597050920010001000087
:104560000009FC42FF420243054308430B430E434C
:10457000114314430B010C0D010E0C030411020432
:1045800009010000010101010202010603010A2DD7
:1045900043A24408000F5B5F5DD1EBF3E6E5E1ED7C
:1045A000FBE92833290E4A43EC43FA4308441644F6
:1045B0002444324440444E445C446A447844864433
:1045C000944400086E322020202020206E756D62F9
:1045D000657256202020202020202020202020200E
:1045E0002020202020202020206D617820202020E5
:1045F000202020202020202020202020204D8E80C0
:1046000020202020202020202020202020202020AA
:10461000206D696E43505430202043505431202087
:1046200043505432202020202020202020202020F1
:104630002034303030303D39433430682020202061
:10464000202020202020202020202020202020206A
:104650002020202020206267726E644578635469B0
:104660006D652020010010047C0909100000010084
:10467000000001010005730909200100010000008C
:104680000101060576090920010001000000010171
:104690000C04790909100000010000000102000566
:1046A00074090920010001000000010206057709D4
:1046B000092001000100000001020C047A09091020
:1046C0000000010000000103000575090920010038
:1046D000010000000103060578090920010001001E
:1046E000000001030C047B09091000000100000018
:1046F000010500057D0909200100010000000106F7
:1047000000057E09092001000100000001070005E5
:104710007F09092001000100000009B544B844BB2D
:1047200044BE44C144C444C744CA44CD440B010DF3
:104730000D010F1102040C03040901000001010125
:10474000010202010603010AE6445B4608000F5B12
:104750005F5DD1EBF3E6E5E1EDFBE92834290E03DB
:1047600045A545B345C145CF45DD45EB45F9450771
:10477000461546234631463F464D4600086E3320D7
:1047800020202020206E756D62657256202020202A
:104790002020202020202020202020202020202019
:1047A00020206D6178202020202020202020202023
:1047B0002020202020204D8E8020202020202020FE
:1047C000202020202020202020206D696E4350547E
:1047D0003020204350543120204350543220202098
:1047E0002020202020202020202034303030303D58
:1047F0003943343068202020202020202020202011
:104800002020202020202020202020202020206266
:1048100067726E6445786354696D652020010010ED
:1048200004640D0910000001000000010100055B97
:104830000D0920010001000000010106055E0D09BF
:104840002001000100000001010C04610D091000AD
:104850000001000000010200055C0D0920010001BB
:10486000000000010206055F0D09200100010000A3
:104870000001020C04620D0910000001000000019B
:104880000300055D0D092001000100000001030681
:1048900005600D092001000100000001030C046304
:1048A0000D091000000100000001050005650D095B
:1048B0002001000100000001060005660D0920012D
:1048C000000100000001070005670D09200100013B
:1048D000000000096E467146744677467A467D466A
:1048E0008046834686460B010E0D01100C03041111
:1048F0000204090100000101010102020106030195
:104900000A9F46144808000F5B5F5DD1EBF3E6E5B4
:10491000E1EDFBE92835290EBC465E476C477A4736
:1049200088479647A447B247C047CE47DC47EA4787
:10493000F847064800086E342020202020206E759D
:104940006D6265725620202020202020202020200B
:1049500020202020202020202020206D6178202071
:104960002020202020202020202020202020204D1A
:104970008E80202020202020202020202020202069
:104980002020206D696E4350543020204350543114
:10499000202043505432202020202020202020207E
:1049A00020202034303030303D39433430682020EE
:1049B00020202020202020202020202020202020F7
:1049C00020202020202020206267726E64457863BA
:1049D00054696D652020010010044C11091000007D
:1049E0000100000001010005431109200100010040
:1049F0000000010106054611092001000100000028
:104A000001010C044911091000000100000001021D
:104A10000005441109200100010000000102060503
:104A20004711092001000100000001020C044A1195
:104A300009100000010000000103000545110920D4
:104A400001000100000001030605481109200100D2
:104A50000100000001030C044B11091000000100CB
:104A60000000010500054D110920010001000000B2
:104A7000010600054E110920010001000000010798
:104A800000054F11092001000100000008254828F9
:104A9000482B482E483148344837483A480B010FD4
:104AA0000C030411020409010000010101010202CA
:104AB000010603010A5048515504000C5B355DD1D5
:104AC000EEF1F2EEFFEDE8E50D6B48BD48CB48D9BD
:104AD00048E24BF04BFE4B074F154F234F2C523AF9
:104AE000524852000485913120202020412020206E
:104AF00020809020202020202085913220202020FE
:104B000041202020208090202020202020859133CB
:104B100020202020412020202080902020202020A4
:104B200020859134202020204120202020809020AA
:104B30002020202020010004032F0409206B04FF03
:104B40007F000001000804710409200100640000D6
:104B50000002000E06110409007F2041424150204E
:104B600020202020202020414241502020202020B1
:104B7000202020202020202020804F544F422080C1
:104B80004F544F4220804F544F422A414241502AB5
:104B90002041424150202A414241502A2041424175
:104BA00050202F50454B06857C50454B06855C5068
:104BB000454B06852D50454B0685204142415020EE
:104BC0002020202020202041424150202020202051
:104BD000202020202020202020804F544F42208061
:104BE0004F544F4220804F544F422A414241502A55
:104BF0002041424150202A414241502A2041424115
:104C000050202F549980412F7C549980417C5C54D2
:104C10009980415C2D549980412D20414241502082
:104C200020202020202020414241502020202020F0
:104C3000202020202020202020804F544F42208000
:104C40004F544F4220804F544F422A414241502AF4
:104C50002A202020202A2A414241502A2A2020208E
:104C6000202A2F50454B06857C20202020205C5098
:104C7000454B06852D2020202020204142415020F8
:104C80002020202020202041424150202020202090
:104C9000202020202020202020804F544F422080A0
:104CA0004F544F4220804F544F422A414241502A94
:104CB0002A202020202A2A414241502A2A2020202E
:104CC000202A2F549980412F7C202020207C5C5466
:104CD0009980415C2D202020202D204142415020F0
:104CE0002041424150202020202020202020202030
:104CF0002020208D4150998B208D4150998B208D03
:104D00004150998B208D4150998B20414241502038
:104D100020414241502020202020202020202020FF
:104D20002020208D4150998B208D4150998B208DD2
:104D30004150998B208D4150998B20414241502008
:104D400020414241502020202020202020202020CF
:104D50002020208D4150998B208D4150998B208DA2
:104D60004150998B208D4150998B204142415020D8
:104D7000204142415020202020202020202020209F
:104D80002020208D4150998B208D4150998B208D72
:104D90004150998B208D4150998B204142415020A8
:104DA000204142415020202020202020202020206F
:104DB0002020208D4150998B208D4150998B208D42
:104DC0004150998B208D4150998B20414241502078
:104DD000204142415020202020202020202020203F
:104DE0002020208D4150998B208D4150998B208D12
:104DF0004150998B208D4150998B20414241502048
:104E0000204142415020202020202020202020200E
:104E10002020208D4150998B208D4150998B208DE1
:104E20004150998B208D4150998B20414241502017
:104E300020414241502020202020202020202020DE
:104E40002020208D4150998B208D4150998B208DB1
:104E50004150998B208D4150998B01010403170813
:104E600009206B04FF7F0000010108045908092094
:104E700001006400000002010E06F90709007F200E
:104E800041424150202020202020202041424150FA
:104E90002020202020202020202020202020804F83
:104EA000544F4220804F544F4220804F544F422A4B
:104EB000414241502A2041424150202A4142415022
:104EC0002A2041424150202F50454B06857C5045B9
:104ED0004B06855C50454B06852D50454B0685207D
:104EE000414241502020202020202020414241509A
:104EF0002020202020202020202020202020804F23
:104F0000544F4220804F544F4220804F544F422AEA
:104F1000414241502A2041424150202A41424150C1
:104F20002A2041424150202F549980412F7C54998E
:104F300080417C5C549980415C2D549980412D20A6
:104F40004142415020202020202020204142415039
:104F50002020202020202020202020202020804FC2
:104F6000544F4220804F544F4220804F544F422A8A
:104F7000414241502A2A202020202A2A41424150E1
:104F80002A2A202020202A2F50454B06857C2020CD
:104F90002020205C50454B06852D202020202020FD
:104FA00041424150202020202020202041424150D9
:104FB0002020202020202020202020202020804F62
:104FC000544F4220804F544F4220804F544F422A2A
:104FD000414241502A2A202020202A2A4142415081
:104FE0002A2A202020202A2F549980412F7C2020FB
:104FF00020207C5C549980415C2D202020202D2095
:105000004142415020204142415020202020202078
:1050100020202020202020208D4150998B208D4160
:1050200050998B208D4150998B208D4150998B2028
:105030004142415020204142415020202020202048
:1050400020202020202020208D4150998B208D4130
:1050500050998B208D4150998B208D4150998B20F8
:105060004142415020204142415020202020202018
:1050700020202020202020208D4150998B208D4100
:1050800050998B208D4150998B208D4150998B20C8
:1050900041424150202041424150202020202020E8
:1050A00020202020202020208D4150998B208D41D0
:1050B00050998B208D4150998B208D4150998B2098
:1050C00041424150202041424150202020202020B8
:1050D00020202020202020208D4150998B208D41A0
:1050E00050998B208D4150998B208D4150998B2068
:1050F0004142415020204142415020202020202088
:1051000020202020202020208D4150998B208D416F
:1051100050998B208D4150998B208D4150998B2037
:105120004142415020204142415020202020202057
:1051300020202020202020208D4150998B208D413F
:1051400050998B208D4150998B208D4150998B2007
:105150004142415020204142415020202020202027
:1051600020202020202020208D4150998B208D410F
:1051700050998B208D4150998B208D4150998B01F6
:10518000020403FF0B09206B04FF7F0000010208EB
:1051900004410C092001006400000002020E06E137
:1051A0000B09007F20414241502020202020202058
:1051B000204142415020202020202020202020205B
:1051C000202020804F544F4220804F544F42208057
:1051D0004F544F422A414241502A204142415020DF
:1051E0002A414241502A2041424150202F50454BF4
:1051F00006857C50454B06855C50454B06852D50F9
:10520000454B06852041424150202020202020206F
:1052100020414241502020202020202020202020FA
:10522000202020804F544F4220804F544F422080F6
:105230004F544F422A414241502A2041424150207E
:105240002A414241502A2041424150202F54998006
:10525000412F7C549980417C5C549980415C2D5451
:105260009980412D204142415020202020202020A3
:10527000204142415020202020202020202020209A
:10528000202020804F544F4220804F544F42208096
:105290004F544F422A414241502A2A202020202A9E
:1052A0002A414241502A2A202020202A2F50454BB3
:1052B00006857C20202020205C50454B06852D2033
:1052C000202020202041424150202020202020204A
:1052D000204142415020202020202020202020203A
:1052E000202020804F544F4220804F544F42208036
:1052F0004F544F422A414241502A2A202020202A3E
:105300002A414241502A2A202020202A2F549980C5
:10531000412F7C202020207C5C549980415C2D20F2
:105320002020202D20414241502020414241502048
:10533000202020202020202020202020208D4150AF
:10534000998B208D4150998B208D4150998B208DC8
:105350004150998B204142415020204142415020F0
:10536000202020202020202020202020208D41507F
:10537000998B208D4150998B208D4150998B208D98
:105380004150998B204142415020204142415020C0
:10539000202020202020202020202020208D41504F
:1053A000998B208D4150998B208D4150998B208D68
:1053B0004150998B20414241502020414241502090
:1053C000202020202020202020202020208D41501F
:1053D000998B208D4150998B208D4150998B208D38
:1053E0004150998B20414241502020414241502060
:1053F000202020202020202020202020208D4150EF
:10540000998B208D4150998B208D4150998B208D07
:105410004150998B2041424150202041424150202F
:10542000202020202020202020202020208D4150BE
:10543000998B208D4150998B208D4150998B208DD7
:105440004150998B204142415020204142415020FF
:10545000202020202020202020202020208D41508E
:10546000998B208D4150998B208D4150998B208DA7
:105470004150998B204142415020204142415020CF
:10548000202020202020202020202020208D41505E
:10549000998B208D4150998B208D4150998B208D77
:1054A0004150998B01030403E70F09206B04FF7F30
:1054B0000000010308042910092001006400000015
:1054C00002030E06C90F09007F20414241502020EF
:1054D0002020202020204142415020202020202038
:1054E0002020202020202020804F544F4220804F19
:1054F000544F4220804F544F422A414241502A206B
:1055000041424150202A414241502A2041424150CB
:10551000202F50454B06857C50454B06855C5045F9
:105520004B06852D50454B06852041424150202099
:1055300020202020202041424150202020202020D7
:105540002020202020202020804F544F4220804FB8
:10555000544F4220804F544F422A414241502A200A
:1055600041424150202A414241502A20414241506B
:10557000202F549980412F7C549980417C5C549910
:1055800080415C2D549980412D2041424150202082
:105590002020202020204142415020202020202077
:1055A0002020202020202020804F544F4220804F58
:1055B000544F4220804F544F422A414241502A2AA0
:1055C000202020202A2A414241502A2A202020201F
:1055D0002A2F50454B06857C20202020205C5045FA
:1055E0004B06852D202020202020414241502020A4
:1055F0002020202020204142415020202020202017
:105600002020202020202020804F544F4220804FF7
:10561000544F4220804F544F422A414241502A2A3F
:10562000202020202A2A414241502A2A20202020BE
:105630002A2F549980412F7C202020207C5C549973
:1056400080415C2D202020202D20414241502020EF
:1056500041424150202020202020202020202020B6
:1056600020208D4150998B208D4150998B208D4168
:1056700050998B208D4150998B20414241502020E0
:105680004142415020202020202020202020202086
:1056900020208D4150998B208D4150998B208D4138
:1056A00050998B208D4150998B20414241502020B0
:1056B0004142415020202020202020202020202056
:1056C00020208D4150998B208D4150998B208D4108
:1056D00050998B208D4150998B2041424150202080
:1056E0004142415020202020202020202020202026
:1056F00020208D4150998B208D4150998B208D41D8
:1057000050998B208D4150998B204142415020204F
:1057100041424150202020202020202020202020F5
:1057200020208D4150998B208D4150998B208D41A7
:1057300050998B208D4150998B204142415020201F
:1057400041424150202020202020202020202020C5
:1057500020208D4150998B208D4150998B208D4177
:1057600050998B208D4150998B20414241502020EF
:105770004142415020202020202020202020202095
:1057800020208D4150998B208D4150998B208D4147
:1057900050998B208D4150998B20414241502020BF
:1057A0004142415020202020202020202020202065
:1057B00020208D4150998B208D4150998B208D4117
:1057C00050998B208D4150998B055C555F556255E2
:1057D0006555685509010000010101010202010639
:1057E00003010A7D55D65611000B5B46315DD1EFA2
:1057F000F0E0E2EAE00180550011302020435441FE
:1058000050544F42959A20202020202020203120E3
:1058100020434F43544F99488E452020202020207C
:10582000202032202048458E4385504142484F4336
:10583000548E20202020332020435441548E435442
:105840008E4B41202020202020203420208E8D4D82
:105850002E20854150414D4554504F4220202B2051
:1058600020438F068C458A48959A202020202020AE
:10587000202046312043855041424B4120202020AA
:105880002020202020202020202020202020202018
:1058900020202020202020202020434C4541522041
:1058A000283163292048414354504F9A4B8E202081
:1058B000202020202020202020434F8A95548E999C
:1058C0002020435450458F4B8E202D3E2042958AF8
:1058D0004F502020202020202020202020203C2D40
:1058E00020202020859120202020435450458F4B9C
:1058F0008E205E2020438B428E802020202020207E
:105900002020202020207620204B418B5041202039
:1059100020204F544F8A50418C4198544399202065
:105920002020202020208B459A4354420698938EB5
:1059300045208D48419145488E992020544F4B4F2A
:1059400042208E2048418550998C45488E9A08E720
:1059500056EA56ED56F056F356F656F956FC560CE6
:1059600003011102010D01130901000001010101F0
:105970000202010603010A11578E5706000B5B5FF6
:105980005DD1EFF0E0E2EAE03101145700064B414F
:105990008B503120434F43544F99488E452020204F
:1059A0002020434C45415220438A504F43204D41D3
:1059B0004B432E20202020202020202054454D85A0
:1059C0004550415406509520202028424F20424304
:1059D00045582085912E2020202020202020545022
:1059E000458A06455443992050418D50459245487B
:1059F0008E45202020202020202020204841208D5E
:105A000041858E43962909A157A457A757AA57AD98
:105A100057B057B357B657B9570C03011102010DD0
:105A200001140B0112090100000101010102020130
:105A30000603010ACE57875809000B5B5F5DD1EF63
:105A4000F0E0E2EAE03201D15700094B418B5032DD
:105A50002048458E4385504142484F43548E204351
:105A60004C45415220438A504F4320414241508E81
:105A70009A20208B4148484F804F2085912020203C
:105A800020202020202020202E2020202020202008
:105A90002020202020202020202020204295424F1E
:105AA0008B204150588E424120414241508E9A20D5
:105AB0002020202020202020208B4148484F804F4C
:105AC0002085912020202020288B8F9920424F8DE7
:105AD0004250415441204B202020202054454B0669
