S01700006F706B5F786D6567613235365F61332E73726563C2
S2140000000C94141E0C94361E0C94361E0C94361E3D
S2140000100C94361E0C94361E0C94361E0C94361E0B
S2140000200C94361E0C94361E0C94361E0C94361EFB
S2140000300C94361E0C94361E0C944F3A0C947C3A54
S2140000400C94A93A0C94D63A0C94033B0C94303B8F
S2140000500C949D840C945D3B0C948A3B0C94B73BAB
S2140000600C94361E0C945C860C94361E0C943086CB
S2140000700C94361E0C94361E0C94361E0C94361EAB
S2140000800C94361E0C94361E0C94361E0C94361E9B
S2140000900C94361E0C94361E0C94361E0C94361E8B
S2140000A00C94361E0C94361E0C94361E0C94361E7B
S2140000B00C94361E0C94361E0C94361E0C94793D09
S2140000C00C94A63D0C94D33D0C94003E0C942D3E0F
S2140000D00C945A3E0C94873E0C94B43E0C94E13E2D
S2140000E00C940E3F0C94361E0C94A0850C94361E71
S2140000F00C94F9840C94361E0C94361E0C94361E02
S2140001000C94361E0C94361E0C94361E0C94361E1A
S2140001100C94361E0C94361E0C94361E0C94361E0A
S2140001200C94361E0C94361E0C94361E0C94361EFA
S2140001300C94361E0C94E43B0C94113C0C943E3C00
S2140001400C946B3C0C94983C0C94C53C0C94AC867C
S2140001500C94F23C0C941F3D0C944C3D0C94361EB3
S2140001600C94361E0C94361E0C94361E0C94361EBA
S2140001700C94361E0C94361E0C94361E0C94361EAA
S2140001800C94361E0C94361E0C94361E0C94361E9A
S2140001900C94361E0C94361E0C94361E0C94361E8A
S2140001A00C94361E0C94361E0C94361E0C94361E7A
S2140001B00C943B3F0C94683F0C94953F0C94C23FC4
S2140001C00C94EF3F0C941C400C94361E0C94361E78
S2140001D00C94361E0C94361E0C94361E0C94361E4A
S2140001E00C94361E0C94361E837FA27F3A804B807A
S2140001F09A8078812482AB801C8154816181C7817A
S214000200D582CB79F1828182B982CB79CB79CB79D1
S214000210CB790183414402010A050003041403015B
S2140002200A00000015000078000B350000000000F2
S21400023000044231354B00000000000000000000C2
S21400024000000000000000000000000000000000A9
S2140002500000000000000000000000000000000099
S2140002600000000000000000000000000000000089
S2140002700000000000000000000000000000000079
S214000280000000000000000000000000A2006A0459
S214000290A008060CC0117A17341DEE223F272C2822
S2140002A07A2A682C062ECD2ED02FF630963136328E
S2140002B0D63276331634BB004604040012283029A2
S2140002C0C4E0F2E0C2F0E5ECFFC2E5F0F1E8FF07BB
S2140002D0CA001C011F012201EB01B4027D030004C9
S2140002E08D414F202241434B2220202020202020D9
S2140002F02020202020854F3A322E3020202020201B
S2140003002020202020202020859131202020202001
S2140003102020208591332020202020208591322007
S21400032020202020202020859134202020202020DE
S21400033003000C04010C02020306110409001F202E
S2140003404142415020202020202020204142415080
S214000350202020202020202F20202020207C20202D
S2140003602020205C804F544F422D804F544F422017
S21400037041424150202041424150202041424150BC
S214000380202041424150202F50418A20207C50415D
S2140003908A20205C50418A20202D50418A2020202F
S2140003A0414241502020414241502020414241508C
S2140003B0202041424150202D2D2D2D2D2D2D2D2D2F
S2140003C02D2D2D2D2D2D2D2D2D2D2D2D2D2D2D2065
S2140003D0414241502020414241502020414241505C
S2140003E0202041424150202F50454B06857C5045E9
S2140003F04B06855C50454B06852D50454B068502C1
S214000400020E06E10B09001F204142415020202029
S2140004102020202020414241502020202020202043
S2140004202F20202020207C20202020205C804F545D
S2140004304F422D804F544F42204142415020204190
S214000440424150202041424150202041424150200C
S2140004502F50418A20207C50418A20205C50418ABF
S21400046020202D50418A202020414241502020410A
S21400047042415020204142415020204142415020DC
S2140004802D2D2D2D2D2D2D2D2D2D2D2D2D2D2D2D97
S2140004902D2D2D2D2D2D2D2D20414241502020413A
S2140004A042415020204142415020204142415020AC
S2140004B02F50454B06857C50454B06855C50454B7A
S2140004C006852D50454B068502030306F9070900ED
S2140004D01F20414241502020202020202020414241
S2140004E04150202020202020202F20202020207C4B
S2140004F020202020205C804F544F422D804F544FA8
S2140005004220414241502020414241502020414259
S2140005104150202041424150202F50418A20207CCB
S21400052050418A20205C50418A20202D50418A204C
S214000530202041424150202041424150202041424B
S2140005404150202041424150202D2D2D2D2D2D2D66
S2140005502D2D2D2D2D2D2D2D2D2D2D2D2D2D2D2DC6
S2140005602D2041424150202041424150202041420E
S2140005704150202041424150202F50454B06857C5B
S21400058050454B06855C50454B06852D50454B0621
S2140005908502030E06C90F09001F20414241502064
S2140005A020202020202020414241502020202020B2
S2140005B020202F20202020207C20202020205C802F
S2140005C04F544F422D804F544F42204142415020BD
S2140005D0204142415020204142415020204142418A
S2140005E050202F50418A20207C50418A20205C5089
S2140005F0418A20202D50418A20202041424150200F
S2140006002041424150202041424150202041424159
S21400061050202D2D2D2D2D2D2D2D2D2D2D2D2D2DEF
S2140006202D2D2D2D2D2D2D2D2D2D204142415020AF
S2140006302041424150202041424150202041424129
S21400064050202F50454B06857C50454B06855C5008
S214000650454B06852D50454B068507550458045BCB
S214000660045E0461046404670400010101010202DF
S214000670010303010704010814010B1801097B0498
S2140006807C0804000A5B315DC3EBE0E2EDFBE90D9C
S2140006909604E804F6040405CD05DB05E905B20674
S2140006A0C006CE069707A507B30700048591313A22
S2140006B02020204120202020809020202020202044
S2140006C08591323A20202041202020208090202032
S2140006D0202020208591333A2020204120202020F1
S2140006E080902020202020208591343A2020204110
S2140006F0202020208090202020202020010004039D
S2140007002F0409203502D87F000001000804710478
S214000710092001006400000002000E061104090012
S2140007201F204142415020202020202020204142EE
S2140007304150202020202020202F20202020207CF8
S21400074020202020205C804F544F422D804F544F55
S2140007504220414241502020414241502020414207
S2140007604150202041424150202F50418A20207C79
S21400077050418A20205C50418A20202D50418A20FA
S21400078020204142415020204142415020204142F9
S2140007904150202041424150202D2D2D2D2D2D2D14
S2140007A02D2D2D2D2D2D2D2D2D2D2D2D2D2D2D2D74
S2140007B02D204142415020204142415020204142BC
S2140007C04150202041424150202F50454B06857C09
S2140007D050454B06855C50454B06852D50454B06CF
S2140007E08501010403170809203502D87F0000019F
S2140007F00108045908092001006400000002010EE7
S21400080006F90709001F20414241502020202020E1
S21400081020202041424150202020202020202F2030
S214000820202020207C20202020205C804F544F4217
S2140008302D804F544F42204142415020204142419A
S21400084050202041424150202041424150202F500C
S214000850418A20207C50418A20205C50418A2020FA
S2140008602D50418A202020414241502020414241C3
S21400087050202041424150202041424150202D2D01
S2140008802D2D2D2D2D2D2D2D2D2D2D2D2D2D2D2D93
S2140008902D2D2D2D2D2D204142415020204142410D
S2140008A050202041424150202041424150202F50AC
S2140008B0454B06857C50454B06855C50454B06856A
S2140008C02D50454B068501020403FF0B0920350217
S2140008D0D87F000001020804410C092001006400D2
S2140008E0000002020E06E10B09001F2041424150A3
S2140008F0202020202020202041424150202020205F
S2140009002020202F20202020207C20202020205C3B
S214000910804F544F422D804F544F42204142415009
S2140009202020414241502020414241502020414257
S2140009304150202F50418A20207C50418A20205C44
S21400094050418A20202D50418A202020414241508B
S2140009502020414241502020414241502020414227
S2140009604150202D2D2D2D2D2D2D2D2D2D2D2D2D88
S2140009702D2D2D2D2D2D2D2D2D2D2D20414241504F
S21400098020204142415020204142415020204142F7
S2140009904150202F50454B06857C50454B06855CC4
S2140009A050454B06852D50454B068501030403E74D
S2140009B00F09203502D87F0000010308042910091A
S2140009C02001006400000002030E06C90F09001F84
S2140009D0204142415020202020202020204142411A
S2140009E050202020202020202F20202020207C2067
S2140009F0202020205C804F544F422D804F544F4281
S214000A002041424150202041424150202041424155
S214000A1050202041424150202F50418A20207C50B7
S214000A20418A20205C50418A20202D50418A202077
S214000A302041424150202041424150202041424125
S214000A4050202041424150202D2D2D2D2D2D2D2D75
S214000A502D2D2D2D2D2D2D2D2D2D2D2D2D2D2D2DC1
S214000A6020414241502020414241502020414241F5
S214000A7050202041424150202F50454B06857C5047
S214000A80454B06855C50454B06852D50454B0685E7
S214000A90078B088E089108940897089A089D0809FD
S214000AA00100010102020103030107040108140109
S214000AB00B180109B308B80B10000C5B325DCFE0D1
S214000AC0F0E0ECE5F2F0FB1DEE08300A3E0A4C0AB8
S214000AD05A0A680A760A840A920AA00AAE0ABC0A69
S214000AE0CA0AD80AE60AF40A020B100B1E0B2C0BD5
S214000AF03A0B480B560B640B720B800B8E0B9C0B41
S214000B00AA0B0010202020854150414D4554509599
S214000B102085912D312020202042583A2020202068
S214000B204220202020202020202080904295583AE5
S214000B30202020204220202020412020202080909D
S214000B4054454D852D504120202020206D61782071
S214000B5020202020202020854150414D455450958E
S214000B602085912D322020202042583A2020202017
S214000B704220202020202020202080904295583A95
S214000B80202020204220202020412020202080904D
S214000B9054454D852D504120202020206D61782021
S214000BA020202020202020854150414D455450953E
S214000BB02085912D332020202042583A20202020C6
S214000BC04220202020202020202080904295583A45
S214000BD020202020422020202041202020208090FD
S214000BE054454D852D504120202020206D617820D1
S214000BF020202020202020854150414D45545095EE
S214000C002085912D342020202042583A2020202074
S214000C104220202020202020202080904295583AF4
S214000C2020202020422020202041202020208090AC
S214000C3054454D852D504120202020206D61782080
S214000C40202020200101050344040920F616FC7F1D
S214000C50000001010F037504092001006400000074
S214000C60010205033D040920F616FC7F0000010280
S214000C700A032F0409203502D87F000001020F0363
S214000C807104092001006400000001030803F30357
S214000C9009200100000100000103100321040920BF
S214000CA0010000010000010505032C080920F616C6
S214000CB0FC7F000001050F035D08092001006400A9
S214000CC000000106050325080920F616FC7F000033
S214000CD001060A03170809203502D87F000001061E
S214000CE00F035908092001006400000001070803EB
S214000CF0DB070920010000010000010710030908B6
S214000D00092001000001000001090503140C092058
S214000D10F616FC7F000001090F03450C09200100B0
S214000D2064000000010A05030D0C0920F616FC7F7E
S214000D300000010A0A03FF0B09203502D87F0000D5
S214000D40010A0F03410C0920010064000000010B9A
S214000D500803C30B0920010000010000010B10036B
S214000D60F10B0920010000010000010D0503FC0F36
S214000D700920F616FC7F0000010D0F032D10092038
S214000D80010064000000010E0503F50F0920F616A9
S214000D90FC7F0000010E0A03E70F09203502D87F0A
S214000DA00000010E0F032910092001006400000056
S214000DB0010F0803AB0F0920010000010000010F1E
S214000DC01003D90F09200100000100000DD30BD637
S214000DD00BD90BDC0BDF0BE20BE50BE80BEB0BEE9A
S214000DE00BF40BFA0B000C0D03040B0204090100B4
S214000DF000010102010303010704010814010B1896
S214000E0001090F00A605D49D0F008E09D49D0F0082
S214000E10760DD49D0F005E11D49D170C781102003C
S214000E200A5B335DCEF8E8E1EAE831021C0C320CCE
S214000E3000012048458E4385504142484F43548E1A
S214000E402054852D312005010014020509004203B7
S214000E50303020858E5441488E4520202B35563C18
S214000E604D494E20303120858E5441488E45202BEA
S214000E703135563E4D415820303220858E544148FB
S214000E808E45202B3135563C4D494E20303320853B
S214000E908E5441488E45202B3234563C4D494E20C8
S214000EA030342048418550998C45488E452044432F
S214000EB0203C2030303520858E5441488E45202BEE
S214000EC0332E33563E4D4158303620065445914B0E
S214000ED0412042208D424548452044433037205427
S214000EE0454D8545504154065041203E204D4158C1
S214000EF03038205245462E202B4142494153323C41
S214000F004D494E203039205245462E202B4142492D
S214000F104153323E4D4158203041205245462E2006
S214000F202B4142494153323C4D494E2030422052DB
S214000F3045462E202B4142494153323E4D415820D2
S214000F40304320858E5441488E45202B41313556FE
S214000F503C4D494E304420858E5441488E45202BCA
S214000F60413135563E4D4158304520858E544148D6
S214000F708E45202D413135563C4D494E3046208514
S214000F808E5441488E45202D413135563E4D4158B0
S214000F90313020544F4B2087418D952041203E20F4
S214000FA04D415820313120544F4B2087418D95209C
S214000FB042203E204D415820313220544F4B20874E
S214000FC0418D952043203E204D415820313320420C
S214000FD095584F8B484F9A20544F4B203E4D4158C2
S214000FE031342043064D4D41204295582E20544F13
S214000FF04B4F4220313520438A4F9A204B8F8A50E0
S214001000422087418D9520413136204F928E8A4B63
S21400101041204452562087418D9520433137204346
S2140010208A4F9A204B8F8A50422087418D952042C6
S2140010303138204F928E8A4B4120445256208741A9
S2140010408D952041313920438A4F9A204B8F8A5004
S214001050422087418D9520433141204F928E8A4B06
S21400106041204452562087418D95204231422048E7
S214001070418550998C45488E452044433E4D415805
S21400108031432050458D45504248419920414241C8
S214001090508E9920314420438A4F9A204F508E45D7
S2140010A0485441908E8E20203145204295582E91EE
S2140010B04143544F5441203E204D41583146204331
S2140010C08A4F9A208E48424550544F504120202047
S2140010D032302050458D455042484199204142418A
S2140010E0508E99203231204F928E8A4B41204452A6
S2140010F05620914F8585455032322050458D4550BB
S2140011004248419920414241508E99203233205026
S214001110458D45504248419920414241508E992084
S21400112032342042582E914143544F5441203E20A1
S2140011304D41582032352042582E914143544F5449
S21400114041203C204D494E2032362050458D45509A
S2140011504248419920414241508E992032372050D2
S214001160458D45504248419920414241508E992034
S21400117032382050458D45504248419920414241E1
S214001180508E992032392050458D4550424841991D
S21400119020414241508E992032412050458D455085
S2140011A04248419920414241508E99203242205077
S2140011B0458D45504248419920414241508E9920E4
S2140011C032432050458D4550424841992041424186
S2140011D0508E9920324420438A4F9A2085455045A8
S2140011E04B8F2E434B4F502E32452050458D455049
S2140011F04248419920414241508E99203246204330
S2140012008A4F9A208B4154912E54454D8545502E39
S214001210333020544F4B2087418D952055203E205B
S2140012204D415820333120544F4B2087418D952017
S21400123056203E204D415820333220544F4B2087B5
S214001240418D952057203E204D4158203333205065
S214001250458D45504248419920414241508E992043
S21400126033342050458D45504248419920414241F3
S214001270508E992033352050458D4550424841992F
S21400128020414241508E99203336204F928E8A4B11
S21400129041204452562087418D9520553337204FA4
S2140012A0928E8A4B41204452562087418D95205677
S2140012B033382050458D455042484199204142419F
S2140012C0508E99203339204F8A509542209045857C
S2140012D08E208D4150998B41334120438A4F9A206E
S2140012E04B8F8A504220544F4B4F4220334220436C
S2140012F08A4F9A204B8F8A50422048418550998CBD
S2140013003343204F928E8A4B4120445256208741C9
S2140013108D9520573344204F8A509542204B4F4896
S21400132054414B544F504120334520438A4F9A2016
S2140013304B4F4854414B544F504120203346204396
S2140013408A4F9A2042958550994D8E54458F992004
S2140013502020202020202020202020202020202088
S214001360202020202048458E4385504142484F4348
S21400137054459A2048455420202D2D204B4F484553
S214001380902043858E434B41202D2D200D931196A2
S2140013901199119C119F11A211A511A811AB11AEA4
S2140013A011B111B411BA11090100000101010102C5
S2140013B003010704010814010B1801090C050111AB
S2140013C004010D01040B01060F00A60575271A007F
S2140013D0A605EA4ED111321702000A5B5F5DCEF811
S2140013E0E8E1EAE83202D611EC1100012048458E09
S2140013F04385504142484F43548E2054852D322019
S21400140005010014EA0809004203303020858E5496
S21400141041488E4520202B35563C4D494E203031D4
S21400142020858E5441488E45202B3135563E4D4101
S2140014305820303220858E5441488E45202B313539
S214001440563C4D494E20303320858E5441488E45BB
S214001450202B3234563C4D494E20303420484185AE
S21400146050998C45488E45204443203C20303035EA
S21400147020858E5441488E45202B332E33563E4DC4
S2140014804158303620065445914B412042208D422B
S21400149045484520444330372054454D8545504106
S2140014A054065041203E204D415830382052454683
S2140014B02E202B4142494153323C4D494E20303973
S2140014C0205245462E202B4142494153323E4D4143
S2140014D058203041205245462E202B414249415348
S2140014E0323C4D494E203042205245462E202B415C
S2140014F042494153323E4D415820304320858E5458
S21400150041488E45202B413135563C4D494E30449E
S21400151020858E5441488E45202B413135563E4D10
S2140015204158304520858E5441488E45202D413106
S21400153035563C4D494E304620858E5441488E45A2
S214001540202D413135563E4D4158313020544F4BB9
S2140015502087418D952041203E204D415820313135
S21400156020544F4B2087418D952042203E204D41F0
S2140015705820313220544F4B2087418D95204320F0
S2140015803E204D4158203133204295584F8B484FCE
S2140015909A20544F4B203E4D415831342043064D3F
S2140015A04D41204295582E20544F4B4F4220313506
S2140015B020438A4F9A204B8F8A50422087418D9530
S2140015C020413136204F928E8A4B4120445256207D
S2140015D087418D952043313720438A4F9A204B8F81
S2140015E08A50422087418D9520423138204F928E76
S2140015F08A4B41204452562087418D9520413139EF
S21400160020438A4F9A204B8F8A50422087418D95DF
S21400161020433141204F928E8A4B4120445256201F
S21400162087418D95204231422048418550998C450E
S214001630488E452044433E4D415831432050458D09
S21400164045504248419920414241508E99203144AC
S21400165020438A4F9A204F508E45485441908E8E94
S21400166020203145204295582E914143544F5441F5
S214001670203E204D4158314620438A4F9A208E48BE
S214001680424550544F504120202032302050458D46
S21400169045504248419920414241508E992032316E
S2140016A0204F928E8A4B412044525620914F85857A
S2140016B0455032322050458D455042484199204190
S2140016C04241508E992032332050458D4550424835
S2140016D0419920414241508E992032342042582E62
S2140016E0914143544F5441203E204D4158203235BD
S2140016F02042582E914143544F5441203C204D499E
S2140017004E2032362050458D455042484199204162
S2140017104241508E992032372050458D45504248E0
S214001720419920414241508E992032382050458DB3
S21400173045504248419920414241508E99203239C5
S2140017402050458D45504248419920414241508E97
S214001750992032412050458D4550424841992041BC
S2140017604241508E992032422050458D4550424885
S214001770419920414241508E992032432050458D58
S21400178045504248419920414241508E992032446A
S21400179020438A4F9A20854550454B8F2E434B4F0A
S2140017A0502E32452050458D4550424841992041A3
S2140017B04241508E9920324620438A4F9A208B41D0
S2140017C054912E54454D8545502E333020544F4B62
S2140017D02087418D952055203E204D41582033319D
S2140017E020544F4B2087418D952056203E204D415A
S2140017F05820333220544F4B2087418D9520572058
S2140018003E204D41582033332050458D45504248A8
S214001810419920414241508E992033342050458DC5
S21400182045504248419920414241508E99203335D7
S2140018302050458D45504248419920414241508EA6
S21400184099203336204F928E8A4B412044525620A0
S21400185087418D9520553337204F928E8A4B4120F5
S2140018604452562087418D95205633382050458D5A
S21400187045504248419920414241508E9920333983
S214001880204F8A509542209045858E208D41509954
S2140018908B41334120438A4F9A204B8F8A504220F7
S2140018A0544F4B4F4220334220438A4F9A204B8F4F
S2140018B08A50422048418550998C3343204F928E5F
S2140018C08A4B41204452562087418D9520573344F9
S2140018D0204F8A509542204B4F4854414B544F500E
S2140018E04120334520438A4F9A204B4F4854414B62
S2140018F0544F50412020334620438A4F9A20429529
S2140019008550994D8E54458F9920202020202020E8
S214001910202020202020202020202020202020489A
S214001920458E4385504142484F4354459A2048458A
S2140019305420202D2D204B4F4845902043858E4324
S2140019404B41202D2D200D4D175017531756175964
S214001950175C175F176217651768176B176E177493
S214001960171801090001010101020301070401081B
S21400197009010014010B0C05011104010D01050BF2
S21400198001030F008E0975271A008E09EA4E8B1781
S214001990EC1C02000A5B5F5DCEF8E8E1EAE8330281
S2140019A09017A61700012048458E438550414248AF
S2140019B04F43548E2054852D332005010014D20C3D
S2140019C009004203303020858E5441488E45202041
S2140019D02B35563C4D494E20303120858E5441489B
S2140019E08E45202B3135563E4D41582030322085CD
S2140019F08E5441488E45202B3135563C4D494E205D
S214001A00303320858E5441488E45202B3234563C48
S214001A104D494E2030342048418550998C45488E9B
S214001A2045204443203C2030303520858E544148A4
S214001A308E45202B332E33563E4D415830362006E9
S214001A405445914B412042208D4245484520444311
S214001A5030372054454D8545504154065041203E70
S214001A60204D41583038205245462E202B414249C1
S214001A704153323C4D494E203039205245462E20A7
S214001A802B4142494153323E4D415820304120526D
S214001A9045462E202B4142494153323C4D494E206B
S214001AA03042205245462E202B4142494153323E79
S214001AB04D415820304320858E5441488E45202B7A
S214001AC0413135563C4D494E304420858E54414870
S214001AD08E45202B413135563E4D415830452085A8
S214001AE08E5441488E45202D413135563C4D494E49
S214001AF0304620858E5441488E45202D413135563E
S214001B003E4D4158313020544F4B2087418D952013
S214001B1041203E204D415820313120544F4B2087E4
S214001B20418D952042203E204D4158203132205490
S214001B304F4B2087418D952043203E204D41582015
S214001B403133204295584F8B484F9A20544F4B20A4
S214001B503E4D415831342043064D4D412042955864
S214001B602E20544F4B4F4220313520438A4F9A2027
S214001B704B8F8A50422087418D9520413136204F29
S214001B80928E8A4B41204452562087418D952043A1
S214001B90313720438A4F9A204B8F8A504220874104
S214001BA08D9520423138204F928E8A4B41204452E8
S214001BB0562087418D952041313920438A4F9A20FF
S214001BC04B8F8A50422087418D9520433141204FCC
S214001BD0928E8A4B41204452562087418D95204252
S214001BE031422048418550998C45488E45204443D3
S214001BF03E4D415831432050458D4550424841990D
S214001C0020414241508E9920314420438A4F9A20E9
S214001C104F508E45485441908E8E202031452042AC
S214001C2095582E914143544F5441203E204D4158E3
S214001C30314620438A4F9A208E48424550544F5092
S214001C404120202032302050458D45504248419951
S214001C5020414241508E99203231204F928E8A4B3D
S214001C60412044525620914F8585455032322050AF
S214001C70458D45504248419920414241508E992019
S214001C8032332050458D45504248419920414241CB
S214001C90508E992032342042582E914143544F544E
S214001CA041203E204D41582032352042582E914149
S214001CB043544F5441203C204D494E20323620504C
S214001CC0458D45504248419920414241508E9920C9
S214001CD032372050458D4550424841992041424177
S214001CE0508E992032382050458D455042484199B3
S214001CF020414241508E992032392050458D455022
S214001D004248419920414241508E9920324120500C
S214001D10458D45504248419920414241508E992078
S214001D2032422050458D455042484199204142411B
S214001D30508E992032432050458D45504248419957
S214001D4020414241508E9920324420438A4F9A20A7
S214001D50854550454B8F2E434B4F502E32452050D5
S214001D60458D45504248419920414241508E992028
S214001D70324620438A4F9A208B4154912E54454D2B
S214001D808545502E333020544F4B2087418D95206B
S214001D9055203E204D415820333120544F4B20874C
S214001DA0418D952056203E204D41582033322054F8
S214001DB04F4B2087418D952057203E204D4158207F
S214001DC033332050458D4550424841992041424189
S214001DD0508E992033342050458D455042484199C5
S214001DE020414241508E992033352050458D455034
S214001DF04248419920414241508E99203336204F27
S214001E00928E8A4B41204452562087418D9520550C
S214001E103337204F928E8A4B4120445256208741BA
S214001E208D95205633382050458D4550424841996F
S214001E3020414241508E99203339204F8A50954296
S214001E40209045858E208D4150998B41334120430B
S214001E508A4F9A204B8F8A504220544F4B4F422035
S214001E60334220438A4F9A204B8F8A504220484163
S214001E708550998C3343204F928E8A4B4120445292
S214001E80562087418D9520573344204F8A509542DF
S214001E90204B4F4854414B544F504120334520432C
S214001EA08A4F9A204B4F4854414B544F5041202064
S214001EB0334620438A4F9A2042958550994D8E543A
S214001EC0458F992020202020202020202020202000
S214001ED020202020202020202048458E4385504169
S214001EE042484F4354459A2048455420202D2D20E3
S214001EF04B4F4845902043858E434B41202D2D2047
S214001F000D071D0A1D0D1D101D131D161D191D1C68
S214001F101D1F1D221D251D281D2E1D18010900012F
S214001F200101010203010704010809010014010B65
S214001F300C05011104010D01060B01040F00760DBE
S214001F4075271A00760DEA4E451DA62202000A5B8A
S214001F505F5DCEF8E8E1EAE834024A1D601D000144
S214001F602048458E4385504142484F43548E205466
S214001F70852D342005010014BA10090042033030C4
S214001F8020858E5441488E4520202B35563C4D49A1
S214001F904E20303120858E5441488E45202B3135D9
S214001FA0563E4D415820303220858E5441488E454D
S214001FB0202B3135563C4D494E20303320858E54EB
S214001FC041488E45202B3234563C4D494E20303405
S214001FD02048418550998C45488E45204443203CF6
S214001FE02030303520858E5441488E45202B332EA8
S214001FF033563E4D4158303620065445914B4120CD
S21400200042208D4245484520444330372054454DB4
S2140020108545504154065041203E204D41583038A9
S214002020205245462E202B4142494153323C4D49D1
S2140020304E203039205245462E202B4142494153EE
S214002040323E4D4158203041205245462E202B41ED
S21400205042494153323C4D494E203042205245467B
S2140020602E202B4142494153323E4D4158203043A9
S21400207020858E5441488E45202B413135563C4DA7
S214002080494E304420858E5441488E45202B4131A0
S21400209035563E4D4158304520858E5441488E4534
S2140020A0202D413135563C4D494E304620858E54C4
S2140020B041488E45202D413135563E4D41583130F0
S2140020C020544F4B2087418D952041203E204D4186
S2140020D05820313120544F4B2087418D9520422087
S2140020E03E204D415820313220544F4B2087418DA1
S2140020F0952043203E204D415820313320429558AC
S2140021004F8B484F9A20544F4B203E4D4158313408
S2140021102043064D4D41204295582E20544F4B4F9C
S2140021204220313520438A4F9A204B8F8A504220D6
S21400213087418D9520413136204F928E8A4B412023
S2140021404452562087418D952043313720438A4F8D
S2140021509A204B8F8A50422087418D9520423138F5
S214002160204F928E8A4B41204452562087418D95AF
S2140021702041313920438A4F9A204B8F8A50422083
S21400218087418D9520433141204F928E8A4B4120C6
S2140021904452562087418D95204231422048418541
S2140021A050998C45488E452044433E4D4158314316
S2140021B02050458D45504248419920414241508E1D
S2140021C09920314420438A4F9A204F508E454854D8
S2140021D041908E8E20203145204295582E914143C5
S2140021E0544F5441203E204D4158314620438A4F9B
S2140021F09A208E48424550544F504120202032307D
S2140022002050458D45504248419920414241508ECC
S21400221099203231204F928E8A4B412044525620CC
S214002220914F8585455032322050458D4550424865
S214002230419920414241508E992032332050458D9D
S21400224045504248419920414241508E99203234AF
S2140022502042582E914143544F5441203E204D4138
S214002260582032352042582E914143544F54412035
S2140022703C204D494E2032362050458D4550424830
S214002280419920414241508E992032372050458D49
S21400229045504248419920414241508E992032385B
S2140022A02050458D45504248419920414241508E2C
S2140022B0992032392050458D455042484199204159
S2140022C04241508E992032412050458D455042481B
S2140022D0419920414241508E992032422050458DEE
S2140022E045504248419920414241508E9920324300
S2140022F02050458D45504248419920414241508EDC
S2140023009920324420438A4F9A20854550454B8F6A
S2140023102E434B4F502E32452050458D4550424857
S214002320419920414241508E9920324620438A4F9F
S2140023309A208B4154912E54454D8545502E33306E
S21400234020544F4B2087418D952055203E204D41EF
S2140023505820333120544F4B2087418D95205620EE
S2140023603E204D415820333220544F4B2087418D1C
S214002370952057203E204D41582033332050458D20
S21400238045504248419920414241508E992033346D
S2140023902050458D45504248419920414241508E3B
S2140023A0992033352050458D45504248419920416B
S2140023B04241508E99203336204F928E8A4B4120D0
S2140023C04452562087418D9520553337204F928EA4
S2140023D08A4B41204452562087418D9520563338EB
S2140023E02050458D45504248419920414241508EEB
S2140023F099203339204F8A509542209045858E206B
S2140024008D4150998B41334120438A4F9A204B8F00
S2140024108A504220544F4B4F4220334220438A4F2B
S2140024209A204B8F8A50422048418550998C3343DE
S214002430204F928E8A4B41204452562087418D95DC
S21400244020573344204F8A509542204B4F485441E2
S2140024504B544F504120334520438A4F9A204B4FD0
S2140024604854414B544F50412020334620438A4F16
S2140024709A2042958550994D8E54458F992020205C
S2140024802020202020202020202020202020202047
S21400249020202048458E4385504142484F435445AE
S2140024A09A2048455420202D2D204B4F48459020FB
S2140024B043858E434B41202D2D200DC122C422C7BB
S2140024C022CA22CD22D022D322D622D922DC22DF53
S2140024D022E222E82218010900010101010203019B
S2140024E00704010809010014010B0C050111040181
S2140024F00D01030B01050F005E1175271A005E1112
S214002500EA4E0223072720000D5B345DD1F2E0F28D
S214002510E8F1F2E8EAE0193523B725C525D325E129
S21400252025EF25FD250B2619262726352643265179
S214002530265F266D267B2689269726A526B326C1E6
S21400254026CF26DD26EB26F9260020202043544100
S214002550548E43548E4B412085912D31202020856A
S2140025604F54502E204B42542A91202020202020C9
S21400257020202050454B0685204B42542A9120208F
S21400258020202020202020424345804F204B4254CC
S2140025902A91202020202020202020202043544143
S2140025A0548E43548E4B412085912D31202020207F
S2140025B02020202020202020202020202020202016
S2140025C02020204250454D9920913A4D2020202031
S2140025D0202020203A202050418A4F5495204F8AB0
S2140025E0934545202043454B20202020204354413E
S2140025F0548E43548E4B412085912D3220202085C9
S2140026004F54502E204B42542A9120202020202028
S21400261020202050454B0685204B42542A912020EE
S21400262020202020202020424345804F204B42542B
S2140026302A912020202020202020202020435441A2
S214002640548E43548E4B412085912D3220202020DD
S2140026502020202020202020202020202020202075
S2140026602020204250454D9920913A4D2020202090
S214002670202020203A202050418A4F5495204F8A0F
S214002680934545202043454B20202020204354419D
S214002690548E43548E4B412085912D332020208527
S2140026A04F54502E204B42542A9120202020202088
S2140026B020202050454B0685204B42542A9120204E
S2140026C020202020202020424345804F204B42548B
S2140026D02A91202020202020202020202043544102
S2140026E0548E43548E4B412085912D33202020203C
S2140026F020202020202020202020202020202020D5
S2140027002020204250454D9920913A4D20202020EF
S214002710202020203A202050418A4F5495204F8A6E
S214002720934545202043454B2020202020435441FC
S214002730548E43548E4B412085912D342020208585
S2140027404F54502E204B42542A91202020202020E7
S21400275020202050454B0685204B42542A912020AD
S21400276020202020202020424345804F204B4254EA
S2140027702A91202020202020202020202043544161
S214002780548E43548E4B412085912D34202020209A
S2140027902020202020202020202020202020202034
S2140027A02020204250454D9920913A4D202020204F
S2140027B0202020203A202050418A4F5495204F8ACE
S2140027C0934545202043454B20202001010C081D41
S2140027D0040A3101000100000001020C081F040A6F
S2140027E03101000100000001030C0866050A3101F2
S2140027F000010000000106090868050A2001000122
S214002800000000010612026A0509300100010000FE
S21400281000010712026B05093001000100000001EB
S214002820090C0805080A31010001000000010A0C25
S2140028300807080A31010001000000010B0C084ED1
S214002840090A31010001000000010E090850090ABA
S21400285020010001000000010E1202520909300199
S2140028600001000000010F120253090930010001A7
S21400287000000001110C08ED0B0A310100010000F8
S2140028800001120C08EF0B0A3101000100000001E4
S214002890130C08360D0A310100010000000116096C
S2140028A008380D0A20010001000000011612023A45
S2140028B00D0930010001000000011712023B0D094E
S2140028C03001000100000001190C08D50F0A310183
S2140028D00001000000011A0C08D70F0A31010001A0
S2140028E0000000011B0C081E110A31010001000047
S2140028F000011E090820110A200100010000000145
S2140029001E120222110930010001000000011F12F0
S21400291002231109300100010000000B1E272127A9
S214002920242727272A272D273027332736273927F6
S2140029303C270D03080B02080C03041102040901CE
S2140029400000010101010202010304010814010B49
S2140029501801095927EF270400135B355DD1EEF106
S214002960F2EEFFEDE8E5C4EEF1F2F3EFE0066627DF
S214002970A427B327C227D127E02700038E8D4D4515
S2140029804845488E4520854150414D4554504F425C
S2140029902020434F43544F99488E45208B4F435435
S2140029A006854120859131208591322085913320FE
S2140029B0859134208591302002030103B10509007A
S2140029C0014845548B41200203050399090900017B
S2140029D04845548B412002030903810D0900014834
S2140029E045548B412002030D036911090001484537
S2140029F0548B412002031103C901090001484554C4
S214002A008B41200C08280B280E281128142817287C
S214002A101A281D28202823282628292809010000EE
S214002A2001010101020201030301071801090C015B
S214002A300F140110150111110112170113130114BF
S214002A404228272A08000F5B2B5DD1EBF3E6E5E171
S214002A50EDFBE9283029156D280F291D292B29396A
S214002A602947295529632971297F298D299B29A959
S214002A7029B729C529D329E129EF29FD290B2A19C8
S214002A802A0008202020202020202020202020206F
S214002A902020202020202020202020202020202031
S214002AA02020202020202020202020202020202021
S214002AB02020202020202020202020202020202011
S214002AC02020202020202020202020202020202001
S214002AD020202061726A3020202020202020202004
S214002AE0202031205353572020202061726A312045
S214002AF020202020202020322020202020202020BF
S214002B0020202061726A32202020202033202020BE
S214002B10202020202020202020202061726A3320C0
S214002B2020342001000004170409100000010000F2
S214002B300001000404180409100000010000000150
S214002B400008041904091000000100000001000C30
S214002B50041A040910000001000000010010040718
S214002B6004091000000100000001010004FF07092D
S214002B701000000100000001010404000809100014
S214002B80000100000001010804010809100000010E
S214002B9000000001010C04020809100000010000FA
S214002BA00001011004EF07091000000100000001F9
S214002BB0020004E70B0910000001000000010204F7
S214002BC004E80B091000000100000001020804E9F7
S214002BD00B091000000100000001020C04EA0B09BA
S214002BE01000000100000001021004D70B091000BD
S214002BF0000100000001030004CF0F0910000001CF
S214002C0000000001030404D00F09100000010000BA
S214002C100001030804D10F091000000100000001A4
S214002C20030C04D20F09100000010000000103107D
S214002C3004BF0F09100000010000000E442A472AB6
S214002C404A2A4D2A502A532A562A592A5C2A5F2A8B
S214002C50622A682A6E2A742A0C010A0901000001F9
S214002C600101010202010303010704010814010B1C
S214002C700D03040B02040F00A6055F760F008E09F5
S214002C805F760F00760D5F760F005E115F76902AF6
S214002C90352C08000F5B5F5DD1EBF3E6E5E1EDFB5D
S214002CA0E928312911B32A552B632B712B7F2B8DE5
S214002CB02B9B2BA92BB72BC52BD32BE12BEF2BFD57
S214002CC02B0B2C192C272C0008202020202020201D
S214002CD020202020202020202020202020202020EF
S214002CE020202020202020202020202020202020DF
S214002CF020202020202020202020202020202020CF
S214002D0020202020202020202020202020202020BE
S214002D10202020202020202020312020202020209D
S214002D20202020202020202020202020203220208C
S214002D3069202020697620202076622020202062CC
S214002D40203320202020202020202020202020206B
S214002D50202020202034202020202020202020205A
S214002D60202020202020202020010001040D04091E
S214002D7010000001000000010006040E0409100007
S214002D80000100000001000B040F04091000000100
S214002D9000000001001004100409100000010000EB
S214002DA00001010104F50709100000010000000100
S214002DB0010604F607091000000100000001010BDF
S214002DC004F707091000000100000001011004F8D4
S214002DD007091000000100000001020104DD0B09D4
S214002DE01000000100000001020604DE0B091000BE
S214002DF0000100000001020B04DF0B0910000001B7
S214002E0000000001021004E00B09100000010000A1
S214002E100001030104C50F091000000100000001B5
S214002E20030604C60F091000000100000001030B92
S214002E3004C70F091000000100000001031004C8B9
S214002E400F09100000010000000A4A2C4D2C502CDF
S214002E50532C562C592C5C2C5F2C622C652C1101A3
S214002E600909010000010101010202010303010733
S214002E7004010814010B0D03040B02047A2CD32D55
S214002E8011000B5B46315DD1EFF0E0E2EAE0017D38
S214002E902C001131202043544150544F42959A2023
S214002EA020202020202020322020854150414D45E2
S214002EB054509520202020202020203320204845D4
S214002EC08E4385504142484F43548E202020203464
S214002ED02020435441548E43548E4B4120202020C2
S214002EE02020203520208E8D4D2E20854150414DAE
S214002EF04554504F4220203020208B4154412F42D1
S214002F0050454D992C424550438E992B2020438F97
S214002F10068C458A48959A2020202020202020468E
S214002F20312043855041424B412020202020202044
S214002F30202020434C454152202831632920484117
S214002F404354504F9A4B8E202020202020202020B3
S214002F502020434F8A95548E992020435450458F05
S214002F604B8E202D3E2042958A4F50202020202038
S214002F70202020202020203C2D202020208591204D
S214002F80202020435450458F4B8E205E2020438BBC
S214002F90428E8020202020202020202020202076E6
S214002FA020204B418B5041202020204F544F8A50E8
S214002FB0418C419854439920202020202020208BAB
S214002FC0459A4354420698938E45208D4841914534
S214002FD0488E992020544F4B4F42208E20484185E2
S214002FE050998C45488E9A0AE82DEB2DEE2DF12D42
S214002FF0F42DF72DFA2DFD2D002E032E0C030111B6
S214003000020109010000010101010202010303019E
S214003010070401081801090D010C182E952E06004C
S2140030200B5B5F5DD1EFF0E0E2EAE032011B2E00C1
S214003030064B418B503220854150414D45545095AA
S2140030402020202020434C45415220438A504F43A5
S214003050204D414B432E202020202020202020548D
S214003060454D854550415406509520202028424F16
S21400307020424345582085912E20202020202020C5
S214003080205450458A06455443992050418D50455A
S2140030909245488E452020202020202020202048B1
S2140030A041208D41858E4396290BAC2EAF2EB22E35
S2140030B0B52EB82EBB2EBE2EC12EC42EC72ECA2E9F
S2140030C00C030111020109010000010101010202C5
S2140030D001030301070401081801090D010D0B0186
S2140030E00BDF2E982F09000B5B5F5DD1EFF0E0E25F
S2140030F0EAE03301E22E00094B418B50332048456D
S2140031008E4385504142484F43548E20434C4541A0
S2140031105220438A504F4320414241508E9A2020ED
S2140031208B4148484F804F2085912020202020202A
S214003130202020202E2853484946542B372920206B
S2140031402020202020202020204295424F8B204106
S21400315050588E424120414241508E9A20202020D5
S2140031602020202020208B4148484F804F208591EA
S2140031702020202020288B8F9920424F8D425041BE
S2140031805441204B202020202054454B0693454D8B
S214003190062048418A4F50062020202020414241E8
S2140031A0508E9A202D20438A504F43290BAF2FB2C2
S2140031B02FB52FB82FBB2FBE2FC12FC42FC72FCA96
S2140031C02FCD2F0C0301110201090100000101019E
S2140031D001020201030301070401081801090D0199
S2140031E00E0B010CE22FC3300B000B5B5F5DD1EFC3
S2140031F0F0E0E2EAE03501E52F000B4B418B50355D
S214003200208E8D4D2E854150414D4554504F425392
S214003210484946542B4E2C454E5420202020202032
S21400322020202020202020202020202042424F8BBB
S214003230208541504F8F9920202050418D50459237
S21400324045488E99208D41858E438E4E202D2048F0
S2140032504F4D455020859120202020202020204EB4
S2140032603D30202D2054454B06938E9A2085912C78
S214003270202020202020434F458B2E2043208506EB
S2140032808F96548E4B4F4D3520424F8D42504154B1
S2140032902020202020202020202020454E542C5363
S2140032A0484946542B4E2020202020202020202035
S2140032B0202020202042424F8B20484F4D45504131
S2140032C020859120202020202020202020422043DE
S2140032D045548E2043414E0AD830DB30DE30E13094
S2140032E0E430E730EA30ED30F030F3300C03011113
S2140032F002010001010901000101020201030301AC
S214003300070401081801090B010D07317731030086
S2140033100A5B5F5DE4EEF1F2F3EF30030E31383115
S214003320463100022020202020202020202020209F
S21400333020202020202020202020202020859130A2
S21400334020202020202020202020202001010A05E7
S214003350BE01092001000100000002020014BE01A7
S2140033600900012D2D8B4F435406852D2D8D41854B
S214003370504593F7482D2D20208B4F43540685202B
S2140033802050418D504592F74820200684318731E1
S2140033908A318D31903193310401081306011401EE
S2140033A010150111110112170113A731173203006E
S2140033B00A5B5F5DE4EEF1F2F3EF3103AE31D83134
S2140033C0E63100022020202020202020202020205F
S2140033D02020202020202020202020202085913101
S2140033E020202020202020202020202001010A0547
S2140033F0A605092001000100000002020014A6052F
S2140034000900012D2D8B4F435406852D2D8D4185AA
S214003410504593F7482D2D20208B4F43540685208A
S2140034202050418D504592F74820200624322732FE
S2140034302A322D32303233320401081306010C01D1
S2140034400F1501111101121701134732B73203008D
S2140034500A5B5F5DE4EEF1F2F3EF32034E32783250
S214003460863200022020202020202020202020201D
S214003470202020202020202020202020208591325F
S21400348020202020202020202020202001010A05A6
S2140034908E090920010001000000020200148E09B6
S2140034A00900012D2D8B4F435406852D2D8D41850A
S2140034B0504593F7482D2D20208B4F4354068520EA
S2140034C02050418D504592F748202006C432C7321E
S2140034D0CA32CD32D032D3320401081306010C01B1
S2140034E00F140110110112170113E73257330300AE
S2140034F00A5B5F5DE4EEF1F2F3EF3303EE3218336E
S21400350026330002202020202020202020202020DB
S21400351020202020202020202020202020859133BD
S21400352020202020202020202020202001010A0505
S214003530760D092001000100000002020014760D3D
S2140035400900012D2D8B4F435406852D2D8D418569
S214003550504593F7482D2D20208B4F435406852049
S2140035602050418D504592F748202006643367333B
S2140035706A336D33703373330401081306010C018C
S2140035800F1401101501111701138733F7330300C9
S2140035900A5B5F5DE4EEF1F2F3EF34038E33B8338B
S2140035A0C63300022020202020202020202020209B
S2140035B0202020202020202020202020208591341C
S2140035C020202020202020202020202001010A0565
S2140035D05E110920010001000000020200145E11C5
S2140035E00900012D2D8B4F435406852D2D8D4185C9
S2140035F0504593F7482D2D20208B4F4354068520A9
S2140036002050418D504592F7482020060434073458
S2140036100A340D34103413340401081306010C0167
S2140036200F1401101501111101122934CE340400B3
S2140036300C5B5F5DCDE0F1F2F0EEE9EAE0063634D1
S21400364088349634A434B234C03400048E8D4D458C
S2140036504845488E45202020859131202020202076
S2140036602020418B5045434F422020208591322018
S21400367020202020204345548E2043414E202020E9
S2140036808591332020202020859130202020202066
S21400369020202020859134202020202001001001A9
S2140036A01604092001000100000001011001FE07B8
S2140036B0092001000100000001021001E60B0920AC
S2140036C0010001000000010304012E000920010092
S2140036D00100000001031001CE0F092001000100C7
S2140036E000000CE734EA34ED34F034F334F634F901
S2140036F034FC34FF3402350535083500010101017C
S2140037000202010303010704010809010018010968
S2140037101406011506021106030C060417060540DA
S214003720002114133A0000303020858E5441488E14
S2140037304520202B35563C4D494E20303120858E75
S2140037405441488E45202B3135563E4D4158203049
S2140037503220858E5441488E45202B3135563C4DBF
S214003760494E20303320858E5441488E45202B32DA
S21400377034563C4D494E2030342048418550998C73
S21400378045488E45204443203C2030303520858EE9
S2140037905441488E45202B332E33563E4D415830EB
S2140037A03620065445914B412042208D42454845DF
S2140037B020444330372054454D85455041540650EB
S2140037C041203E204D41583038205245462E202B71
S2140037D04142494153313C4D494E203039205245F3
S2140037E0462E202B4142494153313E4D4158203010
S2140037F041205245462E202B4142494153323C4DF2
S214003800494E203042205245462E202B4142494107
S21400381053323E4D415820304320858E5441488EC9
S21400382045202B413135563C4D494E304420858E3F
S2140038305441488E45202B413135563E4D41583037
S2140038404520858E5441488E45202D413135563CC5
S2140038504D494E304620858E5441488E45202D4198
S2140038603135563E4D4158313020544F4B2087411C
S2140038708D952041203E204D415820313120544F17
S2140038804B2087418D952042203E204D41582031C7
S2140038903220544F4B2087418D952043203E204DAB
S2140038A04158203133204295584F8B484F9A205428
S2140038B04F4B203E4D415831342043064D4D41205C
S2140038C04295582E20544F4B4F4220313520438A84
S2140038D04F9A204B8F8A50422087418D9520413148
S2140038E036204F928E8A4B41204452562087418D77
S2140038F0952043313720438A4F9A204B8F8A504277
S2140039002087418D9520423138204F928E8A4B4138
S214003910204452562087418D952041313920438AD4
S2140039204F9A204B8F8A50422087418D95204331F5
S21400393041204F928E8A4B41204452562087418D1B
S21400394095204231422048418550998C45488E4505
S2140039502044433E4D415831432050458D4550420A
S21400396048419920414241508E9920314420438A53
S2140039704F9A204F508E45485441908E8E202031CD
S21400398045204295582E914143544F5441203E20A5
S2140039904D4158314620438A4F9A208E4842455022
S2140039A0544F504120202032302050458D45504203
S2140039B048419920414241508E99203231204F9201
S2140039C08E8A4B412044525620914F858545503271
S2140039D0322050458D455042484199204142415041
S2140039E08E992032332050458D45504248419920CB
S2140039F0414241508E992032342042582E91414304
S214003A00544F5441203E204D4158203235204258D4
S214003A102E914143544F5441203C204D494E203274
S214003A20362050458D4550424841992041424150EC
S214003A308E992032372050458D4550424841992076
S214003A40414241508E992032382043064D4D412048
S214003A5042582E2048418550998C2E3239205045A8
S214003A608D45504248419920414241508E9920321E
S214003A70412050458D455042484199204142415091
S214003A808E992032422050458D455042484199201B
S214003A90414241508E992032432050458D45504238
S214003AA048419920414241508E9920324420438A11
S214003AB04F9A20854550454B8F2E434B4F502E3204
S214003AC0452050458D45504248419920414241503D
S214003AD08E9920324620438A4F9A208B4154912E4D
S214003AE054454D8545502E333020544F4B2087414A
S214003AF08D952055203E204D415820333120544F7F
S214003B004B2087418D952056203E204D415820332E
S214003B103220544F4B2087418D952057203E204D14
S214003B2041582033332050458D4550424841992016
S214003B30414241508E992033342043064D4D41205A
S214003B4042582E20544F4B4F4220203335205045AC
S214003B508D45504248419920414241508E9920332C
S214003B6036204F928E8A4B41204452562087418DF4
S214003B709520553337204F928E8A4B41204452561B
S214003B802087418D95205633382050458D4550422C
S214003B9048419920414241508E99203339204F8A1E
S214003BA0509542209045858E208D4150998B41330B
S214003BB04120438A4F9A204B8F8A504220544F4BC5
S214003BC04F4220334220438A4F9A204B8F8A5042DE
S214003BD02048418550998C3343204F928E8A4B4122
S214003BE0204452562087418D9520573344204F8AD3
S214003BF0509542204B4F4854414B544F5041203330
S214003C004520438A4F9A204B4F4854414B544F50BF
S214003C10412020334620438A4F9A2042958550996A
S214003C204D8E54458F99200011241FBECFEFDFE53F
S214003C30DEBFCDBF00E00CBF17E2A0E0B0E2ECE0D4
S214003C40F5E101E00BBF02C007900D92A637B10761
S214003C50D9F71BBE15E5A6E7B7E201C01D92A8304E
S214003C60B107E1F70E9475750C94848A0C940000E5
S214003C70CF92DF92EF92FF920F93CF93DF93CDB761
S214003C80DEB76097CDBFDEBF002309F45AC0298790
S214003C903A874B875C876D877E878F87988B80E215
S214003CA0801B4D855E856F8578891816B4F01D8259
S214003CB01E821F821886992787FD9095909581957C
S214003CC09F4F04C076956795579547958A95D2F786
S214003CD049835A836B837C832CC06A017B01002E48
S214003CE004C0F694E794D794C7940A94D2F7CD828A
S214003CF0DE82EF82F8866A017B0104C0CC0CDD1CF4
S214003D00EE1CFF1C8A95D2F7D701C60149855A8555
S214003D106B857C8504C076956795579547950A957B
S214003D20D2F7842B952BA62BB72B89839A83AB834C
S214003D30BC8329813A814B815C816D817E818F8134
S214003D4098856096CDBFDEBFDF91CF910F91FF9033
S214003D50EF90DF90CF900895CF92DF92EF92FF9290
S214003D600F93CF93DF93CDB7DEB76097CDBFDEBF9F
S214003D70002309F45AC029873A874B875C876D87EA
S214003D807E878F87988B80E2801B49855A856B8556
S214003D907C851816B4F019821A821B821C82992719
S214003DA087FD9095909581959F4F04C0440F551FB1
S214003DB0661F771F8A95D2F74D835E836F83788759
S214003DC02CC06A017B01002E04C0CC0CDD1CEE1C4E
S214003DD0FF1C0A94D2F7C982DA82EB82FC826A015F
S214003DE07B0104C0F694E794D794C7948A95D2F7DB
S214003DF0D701C6014D855E856F85788904C0440F5E
S214003E00551F661F771F0A95D2F7842B952BA62B76
S214003E10B72B8D839E83AF83B88729813A814B81E8
S214003E205C816D817E818F8198856096CDBFDEBF77
S214003E30DF91CF910F91FF90EF90DF90CF90089594
S214003E400F93CF93DF93CDB7DEB76097CDBFDEBFBE
S214003E50002309F456C029873A874B875C876D870D
S214003E607E878F87988B20E2201B8D859E85AF8569
S214003E70B889AC01BD011216B4F0770F440B542F6D
S214003E80BA014D835E836F837887332727FD30958D
S214003E90309521953F4F04C0B595A7959795879582
S214003EA02A95D2F722C0002E04C0759567955795BF
S214003EB047950A94D2F74D835E836F83788704C054
S214003EC0880F991FAA1FBB1F2A95D2F749855A85C6
S214003ED06B857C8504C076956795579547950A95BA
S214003EE0D2F7842B952BA62BB72B89839A83AB838B
S214003EF0BC8329813A814B815C816D817E818F8173
S214003F0098856096CDBFDEBFDF91CF910F91089563
S214003F10A8E4B0E0EEE8FFE10C94218AF50129A3BD
S214003F203AA34BA35CA36DA37EA38FA398A7A98EE9
S214003F30FA8FCB8EDC8EED8EFE8E0F8F18A38DA0A3
S214003F409EA0AFA0B8A4B7FE67C02195B1E0121638
S214003F5008F0B0E03195A1E0131608F0A0E0B32E0B
S214003F60BB1ABB2D882483943B1508F08824A82907
S214003F70419531E0141608F030E0B42EBA1AAB2D95
S214003F80882483944B1508F088243829519541E0FD
S214003F90151608F040E0452E431A31E0541508F097
S214003FA030E0432B619531E0161608F030E0862E9F
S214003FB0841A41E0681508F040E0342B719541E022
S214003FC0171608F040E0572F531B31E0751708F01E
S214003FD030E0432B819531E0181608F030E0682F6A
S214003FE0641B462F61E0841708F060E0362B91953D
S214003FF0931B29A3BAA3ABA34CA28DA25EA34FA387
S21400400098A78FEF9FEFAFEFBFEF25968CAF9DAFD2
S214004010AEAFBFAF259706C025961CAE1DAE1EAE32
S2140040201FAE25978D8D9E8DAF8DB8A1B7FF68C04A
S21400403025962CAD3DAD4EAD5FAD259720953095C0
S2140040404095509525962CAF3DAF4EAF5FAF259768
S214004050E19581E01E1608F080E0F19591E01F16CC
S21400406008F090E04F2F481B81E0F41708F080E03E
S214004070982BC19481E01C1408F080E06C2D691B1D
S21400408091E0C61608F090E0892BD19491E01D14BB
S21400409008F090E05D2D581B81E0D51608F080E012
S2140040A0982BE19481E01E1408F080E03E2D391B29
S2140040B091E0E31608F090E0892BF19491E01F144C
S2140040C008F090E02F2D281B81E0F21608F080E023
S2140040D0982B019581E0101608F080E0702F791B70
S2140040E0972F71E0091708F070E0872B1195181BC1
S2140040F0E98F4A8F6B8F5C8F3D8F2E8F9F8F18A313
S214004100798D6A8D5B8D4C8D3D8D2E8D9F8D88A112
S214004110E9A1E98BEAA1EA8BEBA1EB8BECA1EC8B96
S214004120EDA1ED8BEEA1EE8BEFA1EF8BE8A5E88F6E
S21400413079876A875B874C873D872E879F87888B22
S21400414089849A84AB84BC848D859E85AF85B88926
S214004150E988FA880B891C89EDAAFEAA0FAB18AF6E
S214004160CD88DE88EF88F88C0097A105B10509F0A8
S214004170BDC3C814D904EA04FB0408F04DC100E02E
S214004180801600E0900601E0A00600E0B00658F4B5
S2140041901FEF81169104A104B10409F090F480E0A9
S2140041A090E0DC0117C020E0821620E0920620E0B6
S2140041B0A20621E0B20650F480E190E0A0E0B0E074
S2140041C009C088E090E0A0E0B0E004C088E190E09C
S2140041D0A0E0B0E0B501A401082E04C0769567956E
S2140041E0579547950A94D2F7FA01E75BFF4D208171
S2140041F040E250E060E070E0481B590B6A0B7B0B16
S214004200421B510961097109411551056105710586
S214004210A1F1042E04C0880C991CAA1CBB1C0A948D
S214004220D2F797018601042E04C0000F111F221F2B
S214004230331F0A94D2F780E290E0841B950BCDA83A
S214004240DEA8EFA8F8AC04C0F694E794D794C79419
S2140042508A95D2F7C02AD12AE22AF32A0DA91EA9E6
S2140042602FA938AD04C0000F111F221F331F4A9517
S214004270D2F70DAB1EAB2FAB38AF250166247724E3
S214004280950184012070307009AB1AAB2BAB3CABA8
S214004290C701B601A30192010E94DF892DA73EA7A0
S2140042A04FA758AB69A77AA78BA79CA7C701B601EB
S2140042B0A30192010E94DF89CA01B90129A93AA97E
S2140042C04BA95CA90E94018AAB01BC0109A51AA5ED
S2140042D02BA53CA57801DD24CC240DA91EA92FA969
S2140042E038ADC901AA27BB27C82AD92AEA2AFB2A39
S2140042F00DA51EA52FA538A9C416D506E606F706F1
S21400430038F5015010402040304009A71AA72BA7C7
S2140043103CA7C80CD91CEA1CFB1CC814D904EA0428
S214004320FB04D0F0C416D506E606F706A8F40DA5DD
S2140043301EA52FA538A9025010402040304009A7DE
S2140043401AA72BA73CA7C80CD91CEA1CFB1C04C048
S21400435009A71AA72BA73CA7C41AD50AE60AF70A84
S214004360C701B601A30192010E94DF892DA73EA7CF
S2140043704FA758AB69AF7AAF8BAF9CAFC701B601FA
S214004380A30192010E94DF89CA01B90129A93AA9AD
S2140043904BA95CA90E94018A6B017C0149AD5AAD0C
S2140043A06BAD7CAD9A01112700274DA95EA96FA9B8
S2140043B078AD60707070042B152B262B372B8DA5CF
S2140043C09EA5AFA5B8A90C151D052E053F05C0F482
S2140043D00197A109B109080D191D2A1D3B1D0815D5
S2140043E019052A053B0560F00C151D052E053F0531
S2140043F038F48DA59EA5AFA5B8A90297A109B10965
S21400440009A51AA52BA53CA57801DD24CC24C82A2D
S214004410D92AEA2AFB2AB7C481149104A104B1045C
S21400442051F461E070E080E090E0A50194010E9404
S214004430DF8949015A0110E0811610E0910611E06B
S214004440A10610E0B10658F42FEF82169104A104DD
S214004450B10409F090F480E090E0DC0117C030E091
S214004460831630E0930630E0A30631E0B30650F43E
S21400447080E190E0A0E0B0E009C088E090E0A0E035
S214004480B0E004C088E190E0A0E0B0E0B501A4018F
S214004490082E04C076956795579547950A94D2F7E7
S2140044A0FA01E75BFF4D2081AC01BD01420F511DB3
S2140044B0611D711D80E290E0A0E0B0E0841B950BCA
S2140044C0A60BB70B51F4C818D908EA08FB08F1E0A8
S2140044D04F2E512C612C712C28C1082E04C0880C3C
S2140044E0991CAA1CBB1C0A94D2F797018601042EBD
S2140044F004C036952795179507950A94D2F709AB09
S2140045001AAB2BAB3CAB97018601082E04C0000FFC
S214004510111F221F331F0A94D2F70DA71EA72FA71D
S21400452038ABEDA8FEA80FA918AD04C016950795E0
S214004530F794E7944A95D2F7B801A7010DA51EA5F2
S2140045402FA538A9042B152B262B372B0DA71EA716
S2140045502FA738ABEDA8FEA80FA918AD04C0EE0C27
S214004560FF1C001F111F8A95D2F7EDAAFEAA0FABFB
S21400457018AF2501662477249501840120703070D9
S21400458009AF1AAF2BAF3CAF69A97AA98BA99CA932
S214004590A30192010E94DF8929A73AA74BA75CA72F
S2140045A06B017C0169A97AA98BA99CA9A301920138
S2140045B00E94DF89CA01B90129AD3AAD4BAD5CADA9
S2140045C00E94018AAB01BC017601DD24CC240DA536
S2140045D01EA52FA538A9C901AA27BB27C82AD92AEC
S2140045E0EA2AFB2A09A51AA52BA53CA5C416D506BA
S2140045F0E606F70638F5015010402040304009AB7B
S2140046001AAB2BAB3CABC80CD91CEA1CFB1CC81461
S214004610D904EA04FB04D0F0C416D506E606F7066D
S214004620A8F409A51AA52BA53CA5025010402040C9
S214004630304009AB1AAB2BAB3CABC80CD91CEA1C00
S214004640FB1C04C009AB1AAB2BAB3CABC41AD50A97
S214004650E60AF70AC701B601A30192010E94DF89A4
S21400466029A73AA74BA75CA721966CAF7DAF8EAF64
S2140046709FAF2197C701B601A30192010E94DF896F
S214004680CA01B90129AD3AAD4BAD5CAD0E94018AB5
S2140046908B019C0121964CAD5DAD6EAD7FAD219733
S2140046A0DA01992788274DA55EA56FA578A96070C1
S2140046B07070842B952BA62BB72B49A55AA56BA5F6
S2140046C07CA580179107A207B307F0F4415050402D
S2140046D060407040880D991DAA1DBB1D8815990560
S2140046E0AA05BB0588F080179107A207B30760F4F8
S2140046F049A55AA56BA57CA5425050406040704025
S214004700880D991DAA1DBB1D6C017D01C01AD10A1A
S214004710E20AF30A09A91AA92BA93CA938015524CB
S2140047204424442A552A662A772A850122273327D5
S2140047300DA71EA72FA738AB9501840120703070F7
S21400474009AF1AAF2BAF3CAFC701B6012DA53EA5EA
S2140047504FA558A90E94DF8929A73AA74BA75CA7AF
S21400476069AB7AAB8BAB9CABC701B6012DA53EA55A
S2140047704FA558A90E94DF89CA01B90129AD3AADF3
S2140047804BAD5CAD0E94018AAB01BC0109A91AA918
S2140047902BA93CA97801DD24CC240DA91EA92FA99C
S2140047A038ADC901AA27BB27C82AD92AEA2AFB2A74
S2140047B009A51AA52BA53CA5C416D506E606F70638
S2140047C038F5015010402040304009AB1AAB2BABF7
S2140047D03CABC80CD91CEA1CFB1CC814D904EA0460
S2140047E0FB04D0F0C416D506E606F706A8F409A51D
S2140047F01AA52BA53CA5025010402040304009AB1E
S2140048001AAB2BAB3CABC80CD91CEA1CFB1C04C077
S21400481009AB1AAB2BAB3CABC41AD50AE60AF70AAF
S214004820C701B6012DA53EA54FA558A90E94DF8950
S21400483029A73AA74BA75CA721966CAF7DAF8EAF92
S2140048409FAF2197C701B6012DA53EA54FA558A934
S2140048500E94DF89CA01B90129AD3AAD4BAD5CAD06
S2140048600E94018A8B019C0121964CAD5DAD6EAD18
S2140048707FAD2197DA01992788274DA95EA96FA9F0
S21400488078AD60707070842B952BA62BB72B49A53E
S2140048905AA56BA57CA580179107A207B307D0F48D
S2140048A04150504060407040880D991DAA1DBB1DA8
S2140048B088159905AA05BB0568F080179107A20719
S2140048C0B30740F449A55AA56BA57CA542505040B5
S2140048D06040704009A91AA92BA93CA97801DD24DB
S2140048E0CC24C42AD52AE62AF72A50C2C816D906E6
S2140048F0EA06FB0608F437C2803010E0910711E0A4
S214004900A10710E0B10750F48F3F9105A105B1054E
S21400491009F088F400E010E0980116C0803020E02E
S214004920920720E0A20721E0B20750F400E110E071
S21400493020E030E009C008E010E020E030E004C0ED
S21400494008E110E020E030E0AC01BD01002E04C01C
S21400495076956795579547950A94D2F7FA01E75BDF
S214004960FF4D4081040F111D211D311D40E250E016
S21400497060E070E0401B510B620B730BA1F48C15CA
S2140049809D05AE05BF0508F4F5C1EDA8FEA80FA964
S21400499018AD442455243201E814F9040A051B0511
S2140049A008F0EBC1E3C1342E2C013D0104C0440CD9
S2140049B0551C661C771C4A95D2F7D501C401002EFB
S2140049C004C0B695A795979587950A94D2F7482A76
S2140049D0592A6A2A7B2AA5019401032C04C0220FB7
S2140049E0331F441F551F0A94D2F729AF3AAF4BAF77
S2140049F05CAFB701A601002E04C076956795579563
S214004A0047950A94D2F749AB5AAB6BAB7CABC70160
S214004A10B601032C04C0660F771F881F991F0A94DF
S214004A20D2F76DA77EA78FA798AB8DA99EA9AFA931
S214004A30B8AD04C0B695A795979587950A95D2F711
S214004A404DA55EA56FA578A9482B592B6A2B7B2B05
S214004A504DA75EA76FA778AB4301AA24BB2493019A
S214004A6082012070307021960CAF1DAF2EAF3FAF85
S214004A70219769A97AA98BA99CA9A50194010E94EE
S214004A80DF8929A73AA74BA75CA76B017C0169A918
S214004A907AA98BA99CA9A50194010E94DF89CA0165
S214004AA0B90121962CAD3DAD4EAD5FAD21970E946C
S214004AB0018ADC01CB017601DD24CC240DA51EA5E0
S214004AC02FA538A9A90166277727C42AD52AE62A5A
S214004AD0F72A09A51AA52BA53CA5C816D906EA06E5
S214004AE0FB0638F5015010402040304009AB1AABA9
S214004AF02BAB3CABC40CD51CE61CF71CC414D5046D
S214004B00E604F704D0F0C816D906EA06FB06A8F4B1
S214004B1009A51AA52BA53CA5025010402040304000
S214004B2009AB1AAB2BAB3CABC40CD51CE61CF71C74
S214004B3004C009AB1AAB2BAB3CABC81AD90AEA0ABD
S214004B40FB0AC701B601A50194010E94DF8929A7C7
S214004B503AA74BA75CA729966CAF7DAF8EAF9FAFE9
S214004B602997C701B601A50194010E94DF89CA01F1
S214004B70B90121962CAD3DAD4EAD5FAD21970E949B
S214004B80018A4B015C0129964CAD5DAD6EAD7FADE3
S214004B9029979A01112700278DA59EA5AFA5B8A92C
S214004BA0A070B070082B192B2A2B3B2B89A59AA531
S214004BB0ABA5BCA5081519052A053B05E0F4019729
S214004BC0A109B109040D151D261D371D041515056F
S214004BD02605370580F0081519052A053B0558F403
S214004BE089A59AA5ABA5BCA50297A109B109040D94
S214004BF0151D261D371DB901A801481959096A094E
S214004C007B094DA75EA76FA778AB09A91AA92BA9A0
S214004C103CA97801DD24CC24C82AD92AEA2AFB2A12
S214004C20FFEF8F2EFFEF9F2EA12CB12C8C209D2006
S214004C30AE20BF2087012227332709A71AA72BA754
S214004C403CA749AC5AAC6BAC7CAC2FEF3FEF40E0D6
S214004C5050E0422253226422752229AD3AAD4BAD74
S214004C605CAD8A012227332709AB1AAB2BAB3CABD2
S214004C70C501B401A30192010E94018A69AF7AAF0F
S214004C808BAF9CAFC501B40129A93AA94BA95CA971
S214004C900E94018A4B015C0169A57AA58BA59CA59B
S214004CA0A30192010E94018A2B013C0169A57AA505
S214004CB08BA59CA529A93AA94BA95CA90E94018AA3
S214004CC0AB01BC01840C951CA61CB71C09AD1AAD23
S214004CD02BAD3CADC901AA27BB27880E991EAA1E7C
S214004CE0BB1E84149504A604B70420F4405050401C
S214004CF06F4F7F4FC501AA27BB27840F951FA61F9E
S214004D00B71F0DA51EA52FA538A9081719072A072E
S214004D103B0718F180179107A207B307A1F55401C6
S214004D209924882489AD9AADABADBCADA070B070A7
S214004D30880E991EAA1EBB1E4DA95EA96FA978AD46
S214004D40032C04C0440F551F661F771F0A94D2F722
S214004D50481559056A057B05B0F40894C108D108C2
S214004D60E108F10810C0442455243201CC24DD2487
S214004D7076010CC044245524320181E0C82ED12C83
S214004D80E12CF12C03C0442455243201FE01319657
S214004D9088E0DF011D928A95E9F7C982DA82EB8204
S214004DA0FC824D825E826F8278862C2D3A814B8102
S214004DB05C81642D7E818F8198852596ECACFDAC58
S214004DC00EAD1FAD2597E114F1040105110509F498
S214004DD056C02195E1E0121608F0E0E03195F1E0CA
S214004DE0131608F0F0E0032F0E1BE1E0301708F072
S214004DF0E0E0FE2B4195E1E0141608F0E0E0142F09
S214004E001F1B31E0411708F030E0E32B5195F1E02D
S214004E10151608F0F0E0B52FBE1B31E05B1708F062
S214004E2030E0F32B6195E1E0161608F0E0E0462E40
S214004E304F1A31E0641508F030E0E32B7195F1E08D
S214004E40171608F0F0E0A72FAE1B31E07A1708F02F
S214004E5030E0F32B8195E1E0181608F0E0E0F82E3C
S214004E60FF1AFF2D31E08F1508F030E0E32B919507
S214004E70302F412F5B2F642D7A2F8F2F9E1BC85B00
S214004E80DF4FE1E10C943A8AA8E4B0E0EAE4F7E206
S214004E900C94208AF50129A33AA34BA35CA36DA327
S214004EA07EA38FA398A7A98EFA8FCB8EDC8EED8E6D
S214004EB0FE8E0F8F18A38DA09EA0AFA0B8A4B7FE3D
S214004EC067C02195B1E0121608F0B0E03195A1E078
S214004ED0131608F0A0E0832E8B1AB82D882483942E
S214004EE03B1708F08824A829419531E0141608F0ED
S214004EF030E0942E9A1AA92D88248394491508F038
S214004F0088243829519541E0151608F040E0752EA2
S214004F10731A31E0571508F030E0432B619531E005
S214004F20161608F030E0862E841A41E0681508F060
S214004F3040E0342B719541E0171608F040E0572FFB
S214004F40531B31E0751708F030E0432B819531E0B4
S214004F50181608F030E0A82EA41A4A2D61E08A152B
S214004F6008F060E0362B9195931B29A3BAA3ABA358
S214004F707CA28DA25EA34FA398A788248A94982C1F
S214004F80540125968CAE9DAEAEAEBFAE259706C03C
S214004F9025961CAE1DAE1EAE1FAE25978D8D9E8D22
S214004FA0AF8DB8A1B7FF58C0E19581E01E1608F096
S214004FB080E0F19591E01F1608F090E04F2F481B17
S214004FC081E0F41708F080E0982BC19481E01C146F
S214004FD008F080E06C2D691B91E0C61608F090E0A2
S214004FE0892BD19491E01D1408F090E05D2D581B9C
S214004FF081E0D51608F080E0982BE19481E01E143D
S21400500008F080E03E2D391B91E0E31608F090E0B2
S214005010892BF19491E01F1408F090E02F2D281BA7
S21400502081E0F21608F080E0982B019581E01016DA
S21400503008F080E0902E991A992D71E0091508F075
S21400504070E0872B1195181BE98F4A8F6B8F5C8F4A
S2140050503D8F2E8F9F8F18A3E98CFA8C0B8D1C8D9D
S214005060BD8DAE8D3F8D28A1F9A1EAA14BA15CA113
S2140050706DA17EA18FA198A5E986FA860B871C876D
S214005080BD87AE873F87288B89849A84AB84BC848F
S2140050900D851E852F853889F9A7EAA74BA75CA73B
S2140050A06B017C01011511052105310509F0A5C22A
S2140050B0C814D904EA04FB0408F087C000E0801690
S2140050C000E0900601E0A00600E0B00658F41FEFEE
S2140050D081169104A104B10409F090F480E090E0F8
S2140050E0DC0117C020E0821620E0920620E0A2062F
S2140050F021E0B20650F480E190E0A0E0B0E009C004
S21400510088E090E0A0E0B0E004C088E190E0A0E095
S214005110B0E0B501A401082E04C0769567955795B2
S21400512047950A94D2F7FA01E75BFF4D208140E2EB
S21400513050E060E070E0481B590B6A0B7B0B421B8B
S2140051405109610971094DA75EA76FA778AB411594
S21400515051056105710509F489C12DA5022E04C00B
S214005160880C991CAA1CBB1C0A94D2F7B701A6018E
S214005170022E04C0440F551F661F771F0A94D2F7ED
S21400518080E290E0ADA5BEA58A1B9B0BC9A4DAA45D
S214005190EBA4FCA404C0F694E794D794C7948A952D
S2140051A0D2F7C42AD52AE62AF72A49A55AA56BA516
S2140051B07CA504C0440F551F661F771F2A95D2F79B
S2140051C049A75AA76BA77CA751C181149104A104D3
S2140051D0B10451F461E070E080E090E0A501940134
S2140051E00E94DF8949015A0100E0801600E090061F
S2140051F001E0A00600E0B00658F41FEF8116910407
S214005200A104B10409F090F480E090E0DC0117C03E
S21400521020E0821620E0920620E0A20621E0B206F8
S21400522050F480E190E0A0E0B0E009C088E090E0B3
S214005230A0E0B0E004C088E190E0A0E0B0E0B501F6
S214005240A401082E04C076956795579547950A944D
S214005250D2F7FA01E75BFF4D2081820F911DA11D59
S214005260B11D00E210E020E030E0081B190B2A0B0D
S2140052703B0B0DA71EA72FA738AB0115110521055F
S214005280310529F4C818D908EA08FB08EFC02DA58F
S214005290022E04C0880C991CAA1CBB1C0A94D2F7C8
S2140052A0B701A601082E04C07695679557954795D1
S2140052B00A94D2F749AF5AAF6BAF7CAFB701A601DD
S2140052C0022E04C0440F551F661F771F0A94D2F79C
S2140052D0C9A4DAA4EBA4FCA404C0F694E794D7947B
S2140052E0C7948A95D2F74C295D296E297F2949AB48
S2140052F05AAB6BAB7CABE9A4FAA40BA51CA504C007
S214005300EE0CFF1C001F111F2A95D2F7E9A6FAA67D
S2140053100BA71CA72501662477249501840120701D
S21400532030700DAB1EAB2FAB38AF69AD7AAD8BAD21
S2140053309CADA30192010E94DF89022FC32E142F79
S214005340F52E21966CAF7DAF8EAF9FAF219769ADDE
S2140053507AAD8BAD9CADA30192010E94DF89602FD0
S2140053607C2D812F9F2D2DA93EA94FA958AD0E94B7
S214005370018ADC01CB0121960CAD1DAD2EAD3FADF3
S21400538021977801DD24CC2409A91AA92BA93CA9C8
S214005390A90166277727C42AD52AE62AF72AC81637
S2140053A0D906EA06FB0690F4C80CD91CEA1CFB1CBE
S2140053B0C814D904EA04FB0448F0C816D906EA065D
S2140053C0FB0620F4C80CD91CEA1CFB1CC81AD90A18
S2140053D0EA0AFB0AC701B601A30192010E94DF890F
S2140053E0122F032F342E252E69AF7AAF8BAF9CAFCA
S2140053F0C701B601A30192010E94DF89612F702FB9
S214005400832D922D2DA93EA94FA958AD0E94018A41
S214005410DC01CB0109AD1AAD2BAD3CAD7801DD2426
S214005420CC2449A95AA96BA97CA960707070C42ABB
S214005430D52AE62AF72AC816D906EA06FB0690F405
S214005440C80CD91CEA1CFB1CC814D904EA04FB04CB
S21400545048F0C816D906EA06FB0620F4C80CD91C84
S214005460EA1CFB1CC81AD90AEA0AFB0A850122278D
S214005470332709AB1AAB2BAB3CAB950184012070EC
S214005480307009AF1AAF2BAF3CAFC701B60129A9E0
S2140054903AA94BA95CA90E94DF89122F032F442E3C
S2140054A0752E6DAB7EAB8FAB98AFC701B60129A941
S2140054B03AA94BA95CA90E94DF89612F702F842D21
S2140054C0972D29AD3AAD4BAD5CAD0E94018ADC014B
S2140054D0CB010DA91EA92FA938AD7801DD24CC2457
S2140054E009A51AA52BA53CA5A90166277727C42AD6
S2140054F0D52AE62AF72AC816D906EA06FB0690F445
S214005500C80CD91CEA1CFB1CC814D904EA04FB040A
S21400551048F0C816D906EA06FB0620F4C80CD91CC3
S214005520EA1CFB1CC81AD90AEA0AFB0AC701B6011C
S21400553029A93AA94BA95CA90E94DF89122F032F3B
S214005540442E752E6DAB7EAB8FAB98AFC701B60100
S21400555029A93AA94BA95CA90E94DF89612F702F5F
S214005560842D972D29AD3AAD4BAD5CAD0E94018AD6
S214005570AB01BC01CDA8DEA8EFA8F8ACD6019927F0
S214005580882709A51AA52BA53CA520703070802B6E
S214005590912BA22BB32B84179507A607B70790F479
S2140055A0880D991DAA1DBB1D88159905AA05BB0562
S2140055B048F084179507A607B70720F4880D991DAD
S2140055C0AA1DBB1D841B950BA60BB70B8C019D015A
S2140055D00DA404C036952795179507950A94D2F71B
S2140055E009831A832B833C831D821E821F821886A2
S2140055F03A814B815C8160E0F4C2C016D106E206B7
S214005600F30618F40F2F3E2FEFC2003040E01407C9
S21400561041E0240740E0340750F40F3F1105210510
S214005620310509F088F440E050E0BA0116C00030B9
S21400563050E0150750E0250751E0350750F440E1EB
S21400564050E060E070E009C048E050E060E070E0E4
S21400565004C048E150E060E070E0D901C801042EC3
S21400566004C0B695A795979587950A94D2F7FC013E
S214005670E75BFF4D8081480F511D611D711D80E263
S21400568090E0A0E0B0E0841B950BA60BB70B09F0EA
S21400569040C00C151D052E053F0548F069A57AA5E6
S2140056A08BA59CA5681579058A059B0520F189A51B
S2140056B09AA5ABA5BCA588199909AA09BB09C01A61
S2140056C0D10AE20AF30A41E050E060E070E089A403
S2140056D09AA4ABA4BCA488169906AA06BB0618F022
S2140056E040E050E0BA01C41AD50AE60AF70A89A7CC
S2140056F09AA7ABA7BCA709A51AA52BA53CA5098305
S2140057001A832B833C83CD82DE82EF82F88609A53E
S21400571064C2382ED901C801032C04C0880F991F13
S214005720AA1FBB1F0A94D2F78DA79EA7AFA7B8AB38
S214005730242ED501C401042E04C0B695A7959795CE
S21400574087950A94D2F70DA51EA52FA538A9082B74
S214005750192B2A2B3B2B0DA71EA72FA738AB95017D
S2140057608401032C04C0000F111F221F331F0A944C
S214005770D2F709AF1AAF2BAF3CAF46015701042E44
S21400578004C0B694A794979487940A94D2F78DAAE7
S2140057909EAAAFAAB8AE97018601032C04C0000FDC
S2140057A0111F221F331F0A94D2F789A59AA5ABA50D
S2140057B0BCA504C0B695A795979587954A95D2F748
S2140057C0082B192B2A2B3B2B09AB1AAB2BAB3CAB6C
S2140057D089A49AA4ABA4BCA4032C04C0880C991C6E
S2140057E0AA1CBB1C0A94D2F789A69AA6ABA6BCA68E
S2140057F0CDA4DEA4EFA4F8A84701AA24BB249701F1
S21400580086012070307021960CAF1DAF2EAF3FAFD3
S21400581021976DA97EA98FA998ADA50194010E9434
S214005820DF8929013A016B017C016DA97EA98FA948
S21400583098ADA50194010E94DF89C301B2012196AB
S2140058402CAD3DAD4EAD5FAD21970E94018ADC01C7
S214005850CB017601DD24CC2409A91AA92BA93CA9E1
S214005860A90166277727C42AD52AE62AF72AC81662
S214005870D906EA06FB0678F593018201015010402E
S214005880204030400DAB1EAB2FAB38AF0DA51EA58C
S2140058902FA538A9C00ED11EE21EF31EC016D106D3
S2140058A0E206F306E0F0C816D906EA06FB06B8F4E8
S2140058B09301820102501040204030400DAB1EABD9
S2140058C02FAB38AF0DA51EA52FA538A9C00ED11E2B
